:1000030053D9BF75B64075B28FE4F5A975D4FF75A2
:10001300D5F875A50575A60275A70F75A50575A66F
:1000230002F5A743A51075A70F43A510F5A743A68F
:100033004075A70F43A640F5A775E10275E2407529
:10004300E340D294C2A6F5A2F5A175F805F585752E
:10005300844075B001C2FFC2B7F5A3E5A130E3FB4D
:1000630030FFFDAFA3EF30E723E4F5A3C2FFC29453
:10007300C2B78F8630B7FD30FFFDAFA3E4F5A3C24F
:10008300FFC2B78F8630B7FDD2948023C294C2B724
:100093008F8630B7FDC2B7E4F58630B7FDAF86D2A1
:1000A300948FA3C2FF30FFFDAFA3E4F5A3C2FFE526
:0600B300A130E3A780F973
:030000000200B942
:0C00B900787FE4F6D8FD75810702000393
:00000001FF
