:10017600E4F521D20453D9BF3082FD1208CAC295D4
:10018600C2961209C4120860120978D2AF1208E9A1
:100196001205CE1204121205341209337F09120613
:1001A600C61202227F007E407D007C001207BE7FC1
:1001B6001C1209877F0C1209EFE51B6005E4F51B8D
:1001C60080FEE51C604FE4F51CD2957F20FEFDFC09
:1001D60012047FC29512088430040FC3E52164809F
:1001E60094885006E52124308011200414C3E521AB
:1001F60064809488500BC374379521FDAF21120398
:100206009E0521E521B40908E4F521B2041209335B
:0C0216007F091206C67F80120329809D1C
:0A09C40075EF0675A90443B6402242
:1008CA0043F10C53F1BF43F26053A4F343A56043D1
:0F08DA00800C43A40175D4FF43E10475E3402271
:1008600075E84075BB0675D11C75BC1075A70F7572
:10087000BA04E4F5A7F5BA74FFF5C4F5C375C60369
:0408800075C5072211
:0F09780075B520E4F51FF51CF51BF51EF51D22C6
:0609EF00EF540F421F222D
:0709E800EF540FF4521F222F
:10032900A2AFE433F52DC2AFAEA975A91453B6BF78
:1003390075E501E5A930E7FBE51F4FF5B58EA94342
:10034900B64085B52E75B5207F041209B9EF30E2A4
:100359000CE52E20E207E5B5422E75B520E52E20E5
:10036900E204EF30E203751C01E52E20E304EF30CF
:10037900E503751B01E52E30E103751D01E52E30FE
:10038900E003751E01E52D24FF92AFE52E30E4044C
:040399007FFFDFFE05
:01039D00223D
:1002220085A924E5AE700675AEA575AEF17D607F39
:10023200051209D87D837F061209D87D807F0412BA
:1002420009D875A974752201752350E52315237009
:10025200021522E523452270F27F051209B9EF301B
:10026200E4F77F061209B9EF30E6F77DC07F051289
:1002720009D88524A9E5A930E7FB7DC07F041209CE
:10028200D875A974752203752340E52315237002DE
:100292001522E523452270F27DC07F041209D8752C
:0D02A200B5208524A9E5A930E7FB7564C0EF
:0102AF00222C
:0B09B900EF4490F5AC000000AFAD2251
:0809D800EF4410F5AC8DAD22D7
:1007BE008F308E2F8D2E8C2D75AC14E56454F7F57D
:1007CE00AD0075AC188530AD00852FAD00852EAD12
:0B07DE0000852DAD0075AC148564ADE6
:0107E90022ED
:10000300E5644401FD7F041209D87F041209B9EFA6
:1000130020E0F775ACD000000085AD30000085AD61
:100023002F000085AD2E000085AD2DAF30AE2FAD76
:030033002EAC2DC3
:0100360022A7
:100734008F5F8E5E8D5D8C5C75AC10855FAD0085C2
:100744005EAD00855DAD00855CAD00E5644402FDF1
:0E0754007F041209D87F041209B9EF20E1F7E3
:010762002274
:0E098700EF54FC4264E5644FFD7F040209D882
:0A09CE00EF5264AD647F040209D803
:08047F008F258E248D238C22B1
:10048700A2AFE433F526C2AF8564287FFB1209CEFD
:100497001200038F2C8E2B8D2A8C29E52C2525FF06
:1004A700E52B3524FEE52A3523FDE5293522FC1207
:1004B70007BE851F27431F0C7F8012032985271F2F
:1004C700852864E4F51CFF7E40FDFC1207BEE52687
:0404D70024FF92AFBD
:0104DB0022FE
:1008E90075C154438E045389F0438902758CF08590
:0B08F9008C8AD28C43C18043E60122B0
:100791002000FDD200C202C201751074750C03E481
:1007A100F50D8F0E8D0FF51175120075130FF517DD
:0D07B100751804F519F51AD2C52000FD22B7
:100763002000FDD200C202D201751074750C02E4A0
:10077300F50D8F0EF514751500751624F5177518FC
:0D07830003F519751A01D2C52000FDAF2441
:010790002246
:1002B0002000FDD200C202EF64026008EF64066015
:1002C00003BF011B752D01D201751700751803E5D9
:1002D0002C751900F51A7025751901F51A801EE4A0
:1002E000F52DC201E52C2403F518E433F517E4F5E8
:1002F00019F51AE52C7006751701751803EF6406D9
:100300006003BF0805752E048003E4F52E75107494
:100310008F0C852E0D8D0E8B148A1589168B118AE4
:08032000128913D2C52000FD73
:0103280022B2
:0206C6008F2281
:1006C8007523197524007B007A007923752C027D27
:1006D800307F041202B012083AE522B41208E55835
:1006E8004402FF1209957D807FA1120791C293AD44
:0706F800220F120791D293BB
:0106FF0022D8
:10088400A281E433C29360032081FD1209587B00E6
:100894007A007922752C037D407F021202B012097E
:0408A400E002083A2C
:03003B0002003E82
:10003E00C0E0C083C082C0D075D000C000C001C077
:07004E0002C003C006C00759
:10005500C20330C20302014AE5C054F02480700394
:100065000200F124C0602424E060030201468510EB
:10007500C253C2FEA202E43342C2C2C5750A00756C
:100085000B0075080075090002014C30C15830029B
:100095000302014CC3E5099403E508940050137469
:1000A5000C2509F8E6F5C20509E509702E050802D3
:1000B500014CC3E5099518E50895175020AB11AA21
:1000C50012A9131204DCF5C274012513F513E435E6
:1000D50012F5120509E50970020508806A30015B11
:1000E500D202D2C58061D2C4D2C5805BE51A24FF95
:1000F500FFE51934FFFEC3E50B9FE50A9E501FABD4
:10010500140516E516AA157002051514F9E5C212AF
:100115000522050BE50B7002050AD2C18029AB1437
:100125000516E516AA157002051514F9E5C212059E
:1001350022050BE50B7002050AC2C1D2C4C20080BC
:1001450006D2038002D20330031053C17F43C1801E
:0C015500C2C5C2C4C2C1C200C203C2C005
:10016100D007D006D003D002D001D000D0D0D082A9
:05017100D083D0E03254
:020037000000C7
:1005CE00C2807F0F7E001208A8D2802081FD7BFFA3
:1005DE007A007937752C027D307F041202B0E4F573
:1005EE00587B017A007900752C1E7DB07F021202B5
:1005FE00B07DA57F0A1207917DF17F0A1207917FC8
:02060E000022C8
:0809E000E5584440FF020995AF
:10083A00E5584440FF1209957B007A007925752C0A
:10084A00027D437F021202B0E52530E3031200392C
:05085A003081DD7F008C
:01085F002276
:0C099500AD07ED54BDF5587FA00207919E
:0C09A100AD07ED54FCF5577F0402091C63
:10091C00EF4410F5248D257B007A007924752C0288
:07092C007D0B7F040202B005
:10094700AE07EF4490FD7F0B1207917F0C120763F0
:01095700227D
:10041200E4FD7F0412091C7D607F0512091C7D84A6
:100422007F0612091C7D807F0412091C7FC87E0092
:100432001209047F05120947EF30E4F77F0612091B
:1004420047EF30E6F77DC07F0512091C7DC07F04AF
:1004520012091C7F027E001209047DC07F0412096A
:100462001CE5584440FF1209957B007A00792275F9
:0C0472002C027D437F021202B07557C0BF
:01047E00225B
:10068A008F348E338D328C318531388532378533CC
:10069A0036853435E55754F7FD7F0412091C7D1859
:1006AA007F0B1207917B007A007935752C047D0C3B
:0C06BA007F031202B0AD577F0402091C40
:10061000E5574401FF1209A17F04120947EF20E0CA
:10062000F77DD07F0B1207917B007A00793D752C06
:10063000047D0C7F011202B0853D3C853E3B853F29
:0C0640003A854039AF3CAE3BAD3AAC39D6
:01064C00228B
:10064D008F448E438D428C41854148854247854379
:10065D00468544457D107F0B1207917B007A00790A
:10066D0045752C047D0C7F031202B0E5574402FF43
:0C067D001209A17F04120947EF20E1F7E9
:01068900224E
:10070000C3E49FF54AE49EF549854A4B85494C85EB
:100710004A4D85494E754F04AD4B7F50120791AD40
:100720004C7F51120791AD4D7F52120791AD4E7F14
:0407300053020791D8
:1007EA00C3E49FF551E49EF55085515285505385D7
:1007FA0051548550557556047B007A007952752CF0
:08080A00057D557F040202B0D8
:100958007B017A007900752C1E7DB07F040202B0FD
:100968007B017A00791E752C057DD07F020202B0CA
:1008A800E4FDEF4E601BC2D820D8FDED70077D0136
:1008B80075FC148005E4FD75FC15EF1F70E41E80BF
:0108C800E14E
:0108C900220C
:10090400AB07AA06EB1BAE0270011A4E60097FE822
:080914007E031208A880ED2209
:0200390080FE47
:10053400752241E522D3943F400375223FE49000A5
:1005440005F0A3F0A3F0A3F0A3F01209589000243F
:10055400740EF0A37401F0E5224480A3F0A3742187
:10056400F0E4A3F0A3F0A37410F07B017A007924E3
:10057400752C077D957F041202B0E5584401FF02F3
:020584000995D7
:060812008B608A6189621F
:10081800E4F563AB60AA61A96285638275830012FF
:1008280004F5FDAF6312039E0563E563C3940840B6
:01083800E2DD
:01083900229C
:10093300E4F522E4FDAF2212039E0522E522C394CF
:030943000840F079
:01094600228E
:10058600246E24720078243604780468207A24665F
:100596008118003654600070252218662432246CB7
:1005A600107E346C245A81080076180601765A00AB
:1005B60049004218007E0006243C201E2446245A88
:0805C600247A000E247E245E5D
:02039E008F23AB
:1003A000EDC394414012EDD3945A500CED25E02456
:1003B00004F582E43405802EEDC394614012EDD340
:1003C000947A500CED25E024C4F582E434048016C0
:1003D000EDC39430401DEDD394395017ED25E02442
:1003E0005AF582E43405F583E493F524740193F51A
:1003F000258005E4F524F525E52325E02482FFE5A5
:1004000024FD120791E52325E02481FFE525FD0267
:02041000079152
:030000000209AD45
:0C09AD00787FE4F6D8FD758164020176C5
:1004DC00BB010689828A83E0225002E722BBFE021E
:0904EC00E32289828A83E4932251
:1004F500BB010CE58229F582E5833AF583E02250BC
:1005050006E92582F8E622BBFE06E92582F8E22205
:0D051500E58229F582E5833AF583E493221F
:10052200BB010689828A83F0225002F722BBFE01B8
:02053200F322B2
:00000001FF
