:1000C300E4F508D20053D9BF3082FD1207A1C295CF
:1000D300C2961208A5120736120859D2AF1208B9F0
:1000E3001204A21202E61204081208147F09120570
:1000F3009A12016F7F007E407D007C001206947F80
:100103001C1208687F0C1208DAE53F6005E4F53F2E
:1001130080FEE540604FE4F540D2957F20FEFDFC74
:10012300120353C29512075A30000FC3E5086480C7
:1001330094885006E50824308011200014C3E50894
:1001430064809488500BC374379508FDAF0812027E
:10015300720508E508B40908E4F508B200120814AA
:0C0163007F0912059A7F801201FD809D2B
:0A08A50075EF0675A90443B6402262
:1007A10043F10C53F1BF43F26053A4F343A56043FB
:1007B100800C43A40143A50D53B0FB43E24075E314
:0207C1004022D4
:1007360075E84075BB0675D11C75BC1075A70F759D
:10074600BA04E4F5A7F5BA74FFF5C4F5C375C60394
:0407560075C507223C
:0F08590075B520E4F543F540F53FF542F5412232
:0608DA00EF540F4243221F
:0708D300EF540FF452432221
:1001FD00A2AFE433F514C2AFAEA975A91453B6BFBF
:10020D0075E501E5A930E7FBE5434FF5B58EA9434B
:10021D00B64085B51575B5207F0412089AEF30E20A
:10022D000CE51520E207E5B5421575B520E515205D
:10023D00E204EF30E203754001E51520E304EF30F1
:10024D00E503753F01E51530E103754101E5153015
:10025D00E003754201E51424FF92AFE51530E40487
:04026D007FFFDFFE32
:01027100226A
:10016F0085A90BE5AE700675AEA575AEF17D607F06
:10017F00051208C37D837F061208C37D807F04129A
:10018F0008C375A974750901750A50E50A150A7037
:10019F00021509E50A450970F27F0512089AEF303A
:1001AF00E4F77F0612089AEF30E6F77DC07F05125D
:1001BF0008C3850BA9E5A930E7FB7DC07F041208B2
:1001CF00C375A974750903750A40E50A150A70020B
:1001DF001509E50A450970F27DC07F041208C37541
:0D01EF00B520850BA9E5A930E7FB7551C0CF
:0101FC0022E0
:0B089A00EF4490F5AC000000AFAD2271
:0808C300EF4410F5AC8DAD22ED
:100694008F178E168D158C1475AC14E55154F7F51F
:1006A400AD0075AC188517AD008516AD008515AD88
:0B06B400008514AD0075AC148551AD3D
:0106BF002218
:1005CF00E5514401FD7F041208C37F0412089AEF1E
:1005DF0020E0F775ACD000000085AD17000085ADA9
:1005EF0016000085AD15000085AD14AF17AE16AD22
:0305FF0015AC1424
:0106020022D5
:100637008F4C8E4B8D4A8C4975AC10854CAD00851F
:100647004BAD00854AAD008549AD00E5514402FD3B
:0E0657007F041208C37F0412089AEF20E1F717
:010665002272
:0E086800EF54FC4251E5514FFD7F040208C3DE
:0A08AF00EF5251AD517F040208C35F
:080353008F0C8E0B8D0A8C0942
:10035B00A2AFE433F50DC2AF85510F7FFB1208AF8F
:10036B001205CF8F138E128D118C10E513250CFFF8
:10037B00E512350BFEE511350AFDE5103509FC12CA
:10038B00069485430E43430C7F801201FD850E437B
:10039B00850F51E4F540FF7E40FDFC120694E50D00
:0403AB0024FF92AFEA
:0103AF00222B
:0A08B90075844075B00175850922B1
:10077E00C293C2B775860430B7FDC2B7E4F58630B2
:10078E00B7FDC2B78F8630B7FDC2B78D8630B7FDC5
:03079E00D29322D1
:10066600C293C2B775860230B7FDC2B7E4F58630CD
:10067600B7FDC2B78F8630B7FDC2B77586FF30B7F4
:0D068600FDC2B77586AA30B7FDAF86D293CE
:010693002244
:060003008B108A11891226
:10000900C293C2B78F86EF64066003BF08047E04FB
:100019008002E4FE30B7FDC2B78E86EF6402600845
:10002900EF64066003BF01057514018003E4F5144C
:10003900E5136007751500F5168006751501751627
:100049000030B7FDC2B78D86E5147014AB100512E8
:10005900E512AA117002051114F91203B0FE80020B
:10006900E4FE30B7FDE514B40108C2B7E4F5863003
:10007900B7FDE5164515603FC2B78E86E51615161C
:1000890070021515E5147017AB100512E512AA11C7
:100099007002051114F91203B0FE20B7D580FB30A8
:1000A900B7FDAB100512E512AA117002051114F97A
:0900B900E5861203F680BBD29328
:0100C200221B
:02059A008F09C7
:10059C00750A19750B007B007A00790A7513027DB8
:1005AC00307F04120003120710E509B41208E54568
:1005BC004402FF1208767D807FA112077EAD090FE1
:0305CC0002077EA5
:10075A00A281E4336005C2932081FD1208397B002F
:10076A007A0079097513037D407F0212000312088B
:04077A00CB02071097
:0208E000000016
:1004A200C2807F0F7E001207C3D2802081FD7BFFB6
:1004B2007A0879E07513027D307F04120003E4F5B7
:1004C200457B017A00790075131E7DB07F02120010
:1004D200037DA57F0A12077E7DF17F0A12077E7FC8
:0204E2000022F6
:0808CB00E5454440FF020876F8
:10071000E5454440FF1208767B007A00790C75139A
:10072000027D437F02120003E50C30E3031208E26E
:050730003081DD7F00B7
:0107350022A1
:0C087600AD07ED54BDF5457FA002077EE4
:0C088200AD07ED54FCF5447F040207FDB7
:1007FD00EF4410F50B8D0C7B007A00790B7513020D
:07080D007D0B7F04020003D4
:10082800AE07EF4490FD7F0B12077E7F0C12066621
:01083800229D
:1002E600E4FD7F041207FD7D607F051207FD7D8416
:1002F6007F061207FD7D807F041207FD7FC87E0002
:100306001207E57F05120828EF30E4F77F0612088A
:1003160028EF30E6F77DC07F051207FD7DC07F041C
:100326001207FD7F027E001207E57DC07F041207DB
:10033600FDE5454440FF1208767B007A0079097591
:0C03460013027D437F021200037544C0C7
:010352002288
:10055E008F1B8E1A8D198C1885181F85191E851ADA
:10056E001D851B1CE54454F7FD7F041207FD7D1805
:10057E007F0B12077E7B007A00791C7513047D0CAD
:0C058E007F03120003AD447F040207FD50
:1004E400E5444401FF1208827F04120828EF20E04B
:1004F400F77DD07F0B12077E7B007A007925751378
:10050400047D0C7F0112000385252485262385277D
:0C05140022852821AF24AE23AD22AC21AB
:0105200022B8
:100521008F2C8E2B8D2A8C29852930852A2F852B7E
:100531002E852C2D7D107F0B12077E7B007A007992
:100541002D7513047D0C7F03120003E5444402FF63
:0C0551001208827F04120828EF20E1F756
:01055D00227B
:10060300C3E49FF532E49EF5318532338531348579
:100613003235853136753704AD337F5012077EADE1
:10062300347F5112077EAD357F5212077EAD367F80
:040633005302077EE9
:1006C000C3E49FF539E49EF53885393A85383B8592
:1006D000393C85383D753E047B007A00793A7513C4
:0806E000057D557F04020003B3
:100839007B017A00790075131E7DB07F04020003E5
:100849007B017A00791E7513057DD07F02020003B2
:1007C300E4FDEF4E601BC2D820D8FDED70077D011C
:1007D30075FC148005E4FD75FC15EF1F70E41E80A5
:0107E300E134
:0107E40022F2
:1007E500AB07AA06EB1BAE0270011A4E60097FE843
:0807F5007E031207C380ED2210
:0208E20080FE96
:10040800750941E509D3943F400375093FE490001D
:1004180005F0A3F0A3F0A3F0A3F01208399000248C
:10042800740EF0A37401F0E5094480A3F0A37421CD
:10043800F0E4A3F0A3F0A37410F07B017A00792410
:100448007513077D957F04120003E5454401FF02FB
:02045800087624
:0606E8008B4D8A4E894F84
:1006EE00E4F550AB4DAA4EA94F855082758300128A
:1006FE0003C9FDAF501202720550E550C394084075
:01070E00E208
:01070F0022C7
:10081400E4F509E4FDAF091202720509E509C39480
:030824000840F099
:0108270022AE
:10045A00246E24720078243604780468207A24668C
:10046A008118003654600070252218662432246CE4
:10047A00107E346C245A81080076180601765A00D8
:10048A0049004218007E0006243C201E2446245AB5
:08049A00247A000E247E245E8A
:020272008F0AF1
:10027400EDC394414012EDD3945A500CED25E02483
:10028400D8F582E43403802EEDC394614012EDD39B
:10029400947A500CED25E02498F582E4340380161A
:1002A400EDC39430401DEDD394395017ED25E0246F
:1002B4002EF582E43404F583E493F50B740193F58D
:1002C4000C8005E4F50BF50CE50A25E02482FFE536
:1002D4000BFD12077EE50A25E02481FFE50CFD02F3
:0202E400077E93
:0300000002088E65
:0C088E00787FE4F6D8FD7581510200C3AC
:1003B000BB010689828A83E0225002E722BBFE024B
:0903C000E32289828A83E493227E
:1003C900BB010CE58229F582E5833AF583E02250E9
:1003D90006E92582F8E622BBFE06E92582F8E22233
:0D03E900E58229F582E5833AF583E493224D
:1003F600BB010689828A83F0225002F722BBFE01E6
:02040600F322DF
:00000001FF
