:080F0800253464206D56200021
:10068900E4F508D20153D9BF3082FD120DFAC295A3
:10069900C296120EF4120D90120EA8D2AF120E19B4
:1006A900120AD7120973120A3D120E637F09120B3F
:1006B900CF1207837F007E407D007C00120CC77F2C
:1006C9001C120EB77F0C120F27E55B6005E4F55B82
:1006D90080FEE55C700302077BE4F55CD2957F2020
:1006E900FEFDFC1209E0C295C294D296C2EDC2EB9E
:1006F900D2EC30EDFDC296D294AFBDAEBEE4FCFDA6
:1007090090002D12050F90002DE0FCA3E0FDA3E061
:10071900FEA3E0FFE47BE47A0CF9F81203F29000FF
:100729002D12050F90002DE0FCA3E0FDA3E0FEA330
:10073900E0FFE47BFF7A03F9F812047D90002D12A3
:10074900050F750CFF750D0F750E0890002DA3A3ED
:10075900E0FEA3E08E0FF5107B017A0079241200E8
:100769009A120DB47B017A007924120D1B7F0912AC
:0A0779000BCF7F8012088A0206D21F
:0A0EF40075EF0675A90443B640220D
:100DFA0043F10C53F1BF43F26053A4F343A560439C
:0F0E0A00800C43A40175D4FF43E10475E340223B
:100D900075E84075BB0675D11C75BC1075A70F753D
:100DA000BA04E4F5A7F5BA74FFF5C4F5C375C60334
:040DB00075C50722DC
:0F0EA80075B520E4F55FF55CF55BF55EF55D2251
:060F2700EF540F425F22AF
:070F2000EF540FF4525F22B1
:10088A00A2AFE433F514C2AFAEA975A91453B6BF2B
:10089A0075E501E5A930E7FBE55F4FF5B58EA9439C
:1008AA00B64085B51575B5207F04120EE9EF30E222
:1008BA000CE51520E207E5B5421575B520E51520CA
:1008CA00E204EF30E203755C01E51520E304EF3042
:1008DA00E503755B01E51530E103755D01E515304A
:1008EA00E003755E01E51424FF92AFE51530E404D8
:0408FA007FFFDFFE9F
:0108FE0022D7
:1007830085A90BE5AE700675AEA575AEF17D607FEC
:1007930005120F107D837F06120F107D807F0412D8
:1007A3000F1075A974750901750A50E50A150A70C9
:1007B300021509E50A450970F27F05120EE9EF30CB
:1007C300E4F77F06120EE9EF30E6F77DC07F0512EE
:1007D3000F10850BA9E5A930E7FB7DC07F04120F3D
:1007E3001075A974750903750A40E50A150A7002A4
:1007F3001509E50A450970F27DC07F04120F1075D3
:0D080300B520850BA9E5A930E7FB751DC0E8
:0108100022C5
:0B0EE900EF4490F5AC000000AFAD221C
:080F1000EF4410F5AC8DAD2299
:100CC7008F178E168D158C1475AC14E51D54F7F51A
:100CD700AD0075AC188517AD008516AD008515AD4F
:0B0CE700008514AD0075AC14851DAD38
:010CF20022DF
:10000300E51D4401FD7F04120F107F04120EE9EF7A
:1000130020E0F775ACD000000085AD17000085AD7A
:1000230016000085AD15000085AD14AF17AE16ADF3
:0300330015AC14F5
:0100360022A7
:100C3D008F688E678D668C6575AC108568AD008587
:100C4D0067AD008566AD008565AD00E51D4402FD0F
:0E0C5D007F04120F107F04120EE9EF20E1F762
:010C6B002266
:0E0EB700EF54FC421DE51D4FFD7F04020F109D
:0A0EFE00EF521DAD1D7F04020F101E
:0809E0008F0C8E0B8D0A8C09AF
:1009E800A2AFE433F50DC2AF851D0F7FFB120EFEDB
:1009F8001200038F138E128D118C10E513250CFF36
:100A0800E512350BFEE511350AFDE5103509FC1236
:100A18000CC7855F0E435F0C7F8012088A850E5FC6
:100A2800850F1DE4F55CFF7E40FDFC120CC7E50D4B
:040A380024FF92AF56
:010A3C002297
:100E190075C154438E045389F0438902758CF0855A
:0B0E29008C8AD28C43C18043E601227A
:100C9A00200BFDD20BC20DC20C752A74752603E413
:100CAA00F5278F288D29F52B752C00752D29F531FF
:0D0CBA00753204F533F534D2C5200BFD2250
:100C6C00200BFDD20BC20DD20C752A74752602E432
:100C7C00F5278F28F52E752F0075300BF531753251
:0D0C8C0003F533753401D2C5200BFDAF0B0D
:010C99002238
:10081100200BFDD20BC20DEF64026008EF6406608D
:1008210003BF011B751401D20C753100753203E54C
:1008310013753300F5347025753301F534801EE4EA
:10084100F514C20CE5132403F532E433F531E4F574
:1008510033F534E5137006753101753203EF640623
:100861006003BF08057515048003E4F515752A7446
:100871008F268515278D288B2E8A2F89308B2B8AE1
:080881002C892DD2C5200BFDCE
:01088900224C
:020BCF008F098C
:100BD100750A19750B007B007A00790A7513027D7D
:100BE100307F04120811120D6AE509B41208E5619B
:100BF1004402FF120EC57D807FA1120C9AC293ADF3
:070C0100090F120C9AD293B7
:010C080022C9
:100DB400A281E433C29360032081FD120E887B007C
:100DC4007A0079097513037D407F02120811120F0E
:040DD40018020D6A8A
:03003B000205516A
:10055100C0E0C083C082C0D075D000C000C001C05F
:0705610002C003C006C00741
:10056800C20030C20302065DE5C054F02480700367
:1005780002060424C0602424E06003020659852A88
:10058800C253C2FEA20DE43342C2C2C5752400752F
:10059800250075220075230002065F30C158300D12
:1005A8000302065FC3E5239403E522940050137405
:1005B800262523F8E6F5C20523E523702E05220239
:1005C800065FC3E5239532E52295315020AB2BAA6F
:1005D8002CA92D12039AF5C27401252DF52DE435A9
:1005E8002CF52C0523E52370020522806A300C5B6C
:1005F800D20DD2C58061D2C4D2C5805BE53424FF58
:10060800FFE53334FFFEC3E5259FE5249E501FAB6D
:100618002E0530E530AA2F7002052F14F9E5C21215
:1006280003E00525E52570020524D2C18029AB2EFB
:100638000530E530AA2F7002052F14F9E5C2120320
:10064800E00525E52570020524C2C1D2C4C20B808D
:1006580006D2008002D20030001053C17F43C1800F
:0C066800C2C5C2C4C2C1C20BC200C2C0E5
:10067400D007D006D003D002D001D000D0D0D08291
:05068400D083D0E0323C
:020037000000C7
:100AD700C2807F0F7E00120DD8D2802081FD7BFF60
:100AE7007A0079377513027D307F04120811E4F517
:100AF700617B017A00790075131E7DB07F021208B1
:100B0700117DA57F0A120C9A7DF17F0A120C9A7F3C
:020B17000022BA
:080F1800E5614440FF020EC533
:100D6A00E5614440FF120EC57B007A00790C7513C9
:100D7A00027D437F02120811E50C30E303120039A9
:050D8A003081DD7F0057
:010D8F002241
:0C0EC500AD07ED54BDF5617FA0020C9A52
:0C0ED100AD07ED54FCF5607F04020E4CF0
:100E4C00EF4410F50B8D0C7B007A00790B751302B7
:070E5C007D0B7F0402081169
:100E7700AE07EF4490FD7F0B120C9A7F0C120C6C9F
:010E87002248
:10097300E4FD7F04120E4C7D607F05120E4C7D84D6
:100983007F06120E4C7D807F04120E4C7FC87E00C2
:10099300120E347F05120E77EF30E4F77F06120E46
:1009A30077EF30E6F77DC07F05120E4C7DC07F04E4
:1009B300120E4C7F027E00120E347DC07F04120E95
:1009C3004CE5614440FF120EC57B007A007909753E
:0C09D30013027D437F021208117560C002
:0109DF0022F5
:100B93008F388E378D368C3585353C85363B85379A
:100BA3003A853839E56054F7FD7F04120E4C7D1801
:100BB3007F0B120C9A7B007A0079397513047D0C34
:0C0BC3007F03120811AD607F04020E4C8D
:100B1900E5604401FF120ED17F04120E77EF20E049
:100B2900F77DD07F0B120C9A7B007A0079417513FF
:100B3900047D0C7F0112081185414085423F8543A0
:0C0B49003E85443DAF40AE3FAD3EAC3DAC
:010B5500227D
:100B56008F488E478D468C4585454C85464B854747
:100B66004A8548497D107F0B120C9A7B007A0079E2
:100B7600497513047D0C7F03120811E5604402FFDA
:0C0B8600120ED17F04120E77EF20E1F771
:010B92002240
:100C0900C3E49FF54EE49EF54D854E4F854D5085C5
:100C19004E51854D52755304AD4F7F50120C9AAD0C
:100C2900507F51120C9AAD517F52120C9AAD527FDE
:040C390053020C9ABC
:100CF300C3E49FF555E49EF55485555685545785B1
:100D03005558855459755A047B007A0079567513E2
:080D1300057D557F0402081163
:100E88007B017A00790075131E7DB07F040208117A
:100E98007B017A00791E7513057DD07F0202081147
:100DD800E4FDEF4E601BC2D820D8FDED70077D0101
:100DE80075FC148005E4FD75FC15EF1F70E41E808A
:010DF800E119
:010DF90022D7
:100E3400AB07AA06EB1BAE0270011A4E60097FE8ED
:080E44007E03120DD880ED229F
:0200390080FE47
:100A3D00750941E509D3943F400375093FE49000E2
:100A4D0005F0A3F0A3F0A3F0A3F0120E88900031EF
:100A5D00740EF0A37401F0E5094480A3F0A3742192
:100A6D00F0E4A3F0A3F0A37410F07B017A007931C8
:100A7D007513077D957F04120811E5614401FF028E
:020A8D000EC594
:060D1B008B098A0A890B16
:100D2100E4F50CAB09AA0AA90B850C8275830012A4
:100D310003B3FDAF0C1208FF050CE50CC39408408A
:010D4100E2CF
:010D4200228E
:100E6300E4F509E4FDAF091208FF0509E509C39498
:030E73000840F044
:010E76002259
:100A8F00246E24720078243604780468207A246651
:100A9F008118003654600070252218662432246CA9
:100AAF00107E346C245A81080076180601765A009D
:100ABF0049004218007E0006243C201E2446245A7A
:080ACF00247A000E247E245E4F
:0208FF008F0D5B
:10090100EDC394414012EDD3945A500CED25E024EF
:100911000DF582E4340A802EEDC394614012EDD3CB
:10092100947A500CED25E024CDF582E4340980164B
:10093100EDC39430401DEDD394395017ED25E024DB
:1009410063F582E4340AF583E493F50E740193F5BB
:100951000F8005E4F50EF50FE50D25E02482FFE596
:100961000EFD120C9AE50D25E02481FFE50FFD0235
:020971000C9ADE
:03000000020EDD10
:0C0EDD00787FE4F6D8FD75816802068974
:10039A00BB010689828A83E0225002E722BBFE0261
:0903AA00E32289828A83E4932294
:1003B300BB010CE58229F582E5833AF583E02250FF
:1003C30006E92582F8E622BBFE06E92582F8E22249
:0D03D300E58229F582E5833AF583E4932263
:1003E000BB010689828A83F0225002F722BBFE01FC
:0203F000F322F6
:1003F200E88FF0A4CC8BF0A42CFCE98EF0A42CFCAA
:100402008AF0EDA42CFCEA8EF0A4CDA8F08BF0A427
:100412002DCC3825F0FDE98FF0A42CCD35F0FCEB86
:100422008EF0A4FEA9F0EB8FF0A4CFC5F02ECD394B
:0F043200FEE43CFCEAA42DCE35F0FDE43CFC22B8
:1004410075F008758200EF2FFFEE33FECD33CDCC72
:1004510033CCC58233C5829BED9AEC99E5829840F5
:100461000CF582EE9BFEED9AFDEC99FC0FD5F0D6D2
:10047100E4CEFBE4CDFAE4CCF9A88222B800C1B9FC
:100481000059BA002DEC8BF084CFCECDFCE5F0CB3A
:10049100F97818EF2FFFEE33FEED33FDEC33FCEB73
:1004A10033FB10D703994004EB99FB0FD8E5E4F92E
:1004B100FA227818EF2FFFEE33FEED33FDEC33FC1B
:1004C100C933C910D7059BE99A4007EC9BFCE99A0F
:1004D100F90FD8E0E4C9FAE4CCFB2275F010EF2F54
:1004E100FFEE33FEED33FDCC33CCC833C810D70754
:1004F1009BEC9AE899400AED9BFDEC9AFCE899F88F
:0E0501000FD5F0DAE4CDFBE4CCFAE4C8F92221
:0C050F00ECF0A3EDF0A3EEF0A3EFF0225F
:10003E00E518240CF8E60518227809300902780C28
:10004E00E475F00112051B02039A2002EB7F2ED2FB
:10005E00028018EF540F2490D43440D4FF30060B96
:10006E00EF24BFB41A0050032461FFE51960021596
:10007E0019051CE51C7002051B30090D7809E47585
:10008E00F00112051BEF0203E0020D437403D209C7
:10009E008003E4C209F5188B098A0A890BE4F51965
:1000AE00F51BF51CE51960077F2012007980F575A8
:1000BE001AFFC203C202C204C205C207C208C20AA4
:1000CE00120047FF700D3009057F0012008AAF1C29
:1000DE00AE1B22B4255FC2D5C206120047FF24D044
:1000EE00B40A00501A75F00A781930D50508B6FF13
:1000FE000106C6A426F620D5047002D20580D924A6
:10010E00CFB41A00EF5004C2E5D20602028AD2031F
:10011E0080C6D20280C0D20480BCD2D580BAD207AB
:10012E0080B47F201200792004077401B5190040B5
:10013E00F112003EFF1200790200B2D20AD20880FC
:10014E009512003EFB12003EFA12003EF94A4B7029
:10015E0006795B7A037BFF20042EE519602A7E0068
:10016E008E827583001203B360060EEE651A70F070
:10017E00C2D5EBC0E0EAC0E0E9C0E0EE1202D1D099
:10018E00E0F9D0E0FAD0E0FB12039AFF60AAEBC0D0
:10019E00E0EAC0E0E9C0E0120079D0E02401F9D035
:1001AE00E03400FAD0E0FBE51A0460DCD51AD98001
:1001BE00877BFF7A0279CDD204809C7910800279F8
:1001CE0008C208C20A8008D2D5790A8004790AC208
:1001DE00D5E51A047002F51AE4FAFDFEFF12003E90
:1001EE00FC7B0820031312003EFD7B1030020A1226
:1001FE00003EFE12003EFF7B20EC3382D592D5509E
:10020E0013C3E43002069FFFE49EFEE42003039D29
:10021E00FDE49CFCE4CBF8C203EC700CCFCECDCC4D
:10022E00E824F8F870F38017C3EF33FFEE33FEEDDA
:10023E0033FDEC33FCEB33FB994002FB0FD8E9EBBB
:10024E00300305F8D0E0C448B203C0E00AEC4D4ECE
:10025E004F78207B0070C2EAB51A0040BCC0E01295
:10026E0002D3D0F0D0E0200304C4C0E0C4B203C077
:10027E00F0120062D0F0D5F0EB0200B212052B01A5
:10028E004F5301C95801204C011C4201CD4F01D5DD
:0F029E004401D54901354301DB5501BF4601BF7E
:1002AD004501BF47037B5001242D01282E014B2B07
:1002BD00012C2301492003642A00E4480000014376
:1002CD003F3F3F00790AA2D5200514300709B91028
:1002DD00020404B9080104A2D5200802500104202B
:1002ED0004689204B519005034C0E07F2030051920
:1002FD007F30A20472087207500F12032AC204C283
:10030D0008C207C20A7F30800F300703E9C0E01230
:10031D000079300703D0E0F9D0E0B519CC300717DC
:10032D007F30B9100C1200797F583006077F788026
:10033D0003B908031200793004057F2D0200797F7F
:10034D0020200AF87F2B2008F322920480CF286EFC
:10035D00756C6C2900D20312003E3003F8C203788D
:10036D001930D50108F60200E42D5043495812000A
:10037D003E2403B405004001E49003769312006A15
:0D038D00743A12006AD2057519040201C904
:10051B00FAE6FB0808E6F925F0F618E6CA3AF622E1
:10052B00D083D082F8E4937012740193700DA3A35F
:10053B0093F8740193F5828883E473740293686073
:06054B00EFA3A3A380DF73
:100D4300EFB40A07740D120D4E740A309811A89966
:100D5300B8130CC2983098FDA899C298B811F63010
:070D630099FDC299F59922E8
:00000001FF
