:080DF300253464206D56200038
:10051600E4F508D20053D9BF3082FD120CD1C29542
:10052600C296120DD5120C66120D89D2AF120DE9C4
:100536001209AB120847120911120D447F09120A5B
:10054600A31206D07F007E407D007C00120B9D7FAB
:100556001C120D987F0C120E12E5486005E4F54852
:1005660080FEE5497003020608E4F549D2957F202E
:10057600FEFDFC1208B4C295C294D296C2EDC2EB3F
:10058600D2EC30EDFDC296D294AFBDAEBEE4FCFD1A
:1005960090002D1204D490002DE0FCA3E0FDA3E012
:1005A600FEA3E0FFE47BE47A0CF9F81203B79000AF
:1005B6002D1204D490002DE0FCA3E0FDA3E0FEA3E1
:1005C600E0FFE47BFF7A03F9F812044290002D1253
:1005D60004D4750CFF750D0D750EF390002DA3A3B5
:1005E600E0FEA3E08E0FF5107B017A00792412005D
:1005F6005F120C8A7B017A007924120BF17F0912B3
:0A0606000AA37F8012075E02055F61
:0A0DD50075EF0675A90443B640222D
:100CD10043F10C53F1BF43F26053A4F343A56043C6
:100CE100800C43A40143A50D53B0FB43E24075E3DF
:020CF10040229F
:100C660075E84075BB0675D11C75BC1075A70F7568
:100C7600BA04E4F5A7F5BA74FFF5C4F5C375C6035F
:040C860075C5072207
:0F0D890075B520E4F54CF549F548F54BF54A22D0
:060E1200EF540F424C22D8
:070E0B00EF540FF4524C22DA
:10075E00A2AFE433F514C2AFAEA975A91453B6BF58
:10076E0075E501E5A930E7FBE54C4FF5B58EA943DC
:10077E00B64085B51575B5207F04120DCAEF30E26F
:10078E000CE51520E207E5B5421575B520E51520F7
:10079E00E204EF30E203754901E51520E304EF3082
:1007AE00E503754801E51530E103754A01E515309D
:1007BE00E003754B01E51424FF92AFE51530E40418
:0407CE007FFFDFFECC
:0107D2002204
:1006D00085A90BE5AE700675AEA575AEF17D607FA0
:1006E00005120DFB7D837F06120DFB7D807F0412BA
:1006F0000DFB75A974750901750A50E50A150A7094
:10070000021509E50A450970F27F05120DCAEF309E
:10071000E4F77F06120DCAEF30E6F77DC07F0512C1
:100720000DFB850BA9E5A930E7FB7DC07F04120D09
:10073000FB75A974750903750A40E50A150A70026C
:100740001509E50A450970F27DC07F04120DFB759D
:0D075000B520850BA9E5A930E7FB751DC09C
:01075D002279
:0B0DCA00EF4490F5AC000000AFAD223C
:080DFB00EF4410F5AC8DAD22B0
:100B9D008F178E168D158C1475AC14E51D54F7F545
:100BAD00AD0075AC188517AD008516AD008515AD7A
:0B0BBD00008514AD0075AC14851DAD63
:010BC800220A
:100AD800E51D4401FD7F04120DFB7F04120DCAEFD2
:100AE80020E0F775ACD000000085AD17000085AD9B
:100AF80016000085AD15000085AD14AF17AE16AD14
:030B080015AC1415
:010B0B0022C7
:100B40008F558E548D538C5275AC108555AD0085E4
:100B500054AD008553AD008552AD00E51D4402FD46
:0E0B60007F04120DFB7F04120DCAEF20E1F797
:010B6E002264
:0E0D9800EF54FC421DE51D4FFD7F04020DFBD4
:0A0DDF00EF521DAD1D7F04020DFB55
:0808B4008F0C8E0B8D0A8C09DC
:1008BC00A2AFE433F50DC2AF851D0F7FFB120DDF28
:1008CC00120AD88F138E128D118C10E513250CFF84
:1008DC00E512350BFEE511350AFDE5103509FC1264
:1008EC000B9D854C0E434C0C7F8012075E850E4C85
:1008FC00850F1DE4F549FF7E40FDFC120B9DE50DB7
:04090C0024FF92AF83
:0109100022C4
:0A0DE90075844075B001758509227C
:100CAE00C293C2B775860430B7FDC2B7E4F586307D
:100CBE00B7FDC2B78F8630B7FDC2B78D8630B7FD90
:030CCE00D293229C
:100B6F00C293C2B775860230B7FDC2B7E4F58630BF
:100B7F00B7FDC2B78F8630B7FDC2B77586FF30B7E6
:0D0B8F00FDC2B77586AA30B7FDAF86D293C0
:010B9C002236
:060610008B108A11891213
:10061600C293C2B78F86EF64066003BF08047E04E8
:100626008002E4FE30B7FDC2B78E86EF6402600832
:10063600EF64066003BF01057514018003E4F51439
:10064600E5136007751500F5168006751501751614
:100656000030B7FDC2B78D86E5147014AB100512D5
:10066600E512AA117002051114F912035FFE800249
:10067600E4FE30B7FDE514B40108C2B7E4F58630F0
:10068600B7FDE5164515603FC2B78E86E516151609
:1006960070021515E5147017AB100512E512AA11B4
:1006A6007002051114F912035FFE20B7D580FB30E6
:1006B600B7FDAB100512E512AA117002051114F967
:0906C600E5861203A580BBD29366
:0106CF002208
:020AA3008F09B9
:100AA500750A19750B007B007A00790A7513027DAA
:100AB500307F04120610120C40E509B41208E54E09
:100AC5004402FF120DA67D807FA1120CAEAD090F69
:030AD500020CAE62
:100C8A00A281E4336005C2932081FD120D697B00C5
:100C9A007A0079097513037D407F02120610120E3D
:040CAA0003020C40F5
:020E18000000D8
:1009AB00C2807F0F7E00120CF3D2802081FD7BFF73
:1009BB007A0E79187513027D307F04120610E4F558
:1009CB004E7B017A00790075131E7DB07F021206F3
:1009DB00107DA57F0A120CAE7DF17F0A120CAE7F43
:0209EB000022E8
:080E0300E54E4440FF020DA67C
:100C4000E54E4440FF120DA67B007A00790C751327
:100C5000027D437F02120610E50C30E303120E1AE8
:050C60003081DD7F0082
:010C6500226C
:0C0DA600AD07ED54BDF54E7FA0020CAE71
:0C0DB200AD07ED54FCF54D7F04020D2D43
:100D2D00EF4410F50B8D0C7B007A00790B751302D7
:070D3D007D0B7F040206108C
:100D5800AE07EF4490FD7F0B120CAE7F0C120B6FA9
:010D68002268
:10084700E4FD7F04120D2D7D607F05120D2D7D8443
:100857007F06120D2D7D807F04120D2D7FC87E002F
:10086700120D157F05120D58EF30E4F77F06120DB4
:1008770058EF30E6F77DC07F05120D2D7DC07F0450
:10088700120D2D7F027E00120D157DC07F04120D03
:100897002DE54E4440FF120DA67B007A00790975BD
:0C08A70013027D437F02120610754DC045
:0108B3002222
:100A67008F258E248D238C22852229852328852472
:100A770027852526E54D54F7FD7F04120D2D7D189A
:100A87007F0B120CAE7B007A0079267513047D0C60
:0C0A97007F03120610AD4D7F04020D2DF0
:1009ED00E54D4401FF120DB27F04120D58EF20E0CA
:1009FD00F77DD07F0B120CAE7B007A00792E75132C
:100A0D00047D0C7F01120610852E2D852F2C85302F
:0C0A1D002B85312AAF2DAE2CAD2BAC2A5E
:010A290022AA
:100A2A008F358E348D338C3285323985333885341F
:100A3A00378535367D107F0B120CAE7B007A007934
:100A4A00367513047D0C7F03120610E54D4402FF30
:0C0A5A00120DB27F04120D58EF20E1F7DE
:010A6600226D
:100B0C00C3E49FF53BE49EF53A853B3C853A3D8535
:100B1C003B3E853A3F754004AD3C7F50120CAEAD68
:100B2C003D7F51120CAEAD3E7F52120CAEAD3F7FED
:040B3C0053020CAEA6
:100BC900C3E49FF542E49EF541854243854144854E
:100BD90042458541467547047B007A007943751380
:080BE900057D557F0402061092
:100D69007B017A00790075131E7DB07F040206109D
:100D79007B017A00791E7513057DD07F020206106A
:100CF300E4FDEF4E601BC2D820D8FDED70077D01E7
:100D030075FC148005E4FD75FC15EF1F70E41E806F
:010D1300E1FE
:010D140022BC
:100D1500AB07AA06EB1BAE0270011A4E60097FE80D
:080D25007E03120CF380ED22A5
:020E1A0080FE58
:10091100750941E509D3943F400375093FE490000F
:1009210005F0A3F0A3F0A3F0A3F0120D699000313C
:10093100740EF0A37401F0E5094480A3F0A37421BF
:10094100F0E4A3F0A3F0A37410F07B017A007931F5
:100951007513077D957F04120610E54E4401FF02D1
:020961000DA6E1
:060BF1008B098A0A890B42
:100BF700E4F50CAB09AA0AA90B850C8275830012D0
:100C07000378FDAF0C1207D3050CE50CC39408401D
:010C1700E2FA
:010C180022B9
:100D4400E4F509E4FDAF091207D30509E509C394E5
:030D54000840F064
:010D57002279
:10096300246E24720078243604780468207A24667E
:100973008118003654600070252218662432246CD6
:10098300107E346C245A81080076180601765A00CA
:1009930049004218007E0006243C201E2446245AA7
:0809A300247A000E247E245E7C
:0207D3008F0D88
:1007D500EDC394414012EDD3945A500CED25E0241D
:1007E500E1F582E43408802EEDC394614012EDD327
:1007F500947A500CED25E024A1F582E434088016A6
:10080500EDC39430401DEDD394395017ED25E02408
:1008150037F582E43409F583E493F50E740193F515
:100825000F8005E4F50EF50FE50D25E02482FFE5C3
:100835000EFD120CAEE50D25E02481FFE50FFD024E
:020845000CAEF7
:03000000020DBE30
:0C0DBE00787FE4F6D8FD7581550205161B
:10035F00BB010689828A83E0225002E722BBFE029C
:09036F00E32289828A83E49322CF
:10037800BB010CE58229F582E5833AF583E022503A
:1003880006E92582F8E622BBFE06E92582F8E22284
:0D039800E58229F582E5833AF583E493229E
:1003A500BB010689828A83F0225002F722BBFE0137
:0203B500F32231
:1003B700E88FF0A4CC8BF0A42CFCE98EF0A42CFCE5
:1003C7008AF0EDA42CFCEA8EF0A4CDA8F08BF0A463
:1003D7002DCC3825F0FDE98FF0A42CCD35F0FCEBC2
:1003E7008EF0A4FEA9F0EB8FF0A4CFC5F02ECD3987
:0F03F700FEE43CFCEAA42DCE35F0FDE43CFC22F4
:1004060075F008758200EF2FFFEE33FECD33CDCCAD
:1004160033CCC58233C5829BED9AEC99E582984030
:100426000CF582EE9BFEED9AFDEC99FC0FD5F0D60D
:10043600E4CEFBE4CDFAE4CCF9A88222B800C1B937
:100446000059BA002DEC8BF084CFCECDFCE5F0CB75
:10045600F97818EF2FFFEE33FEED33FDEC33FCEBAE
:1004660033FB10D703994004EB99FB0FD8E5E4F969
:10047600FA227818EF2FFFEE33FEED33FDEC33FC56
:10048600C933C910D7059BE99A4007EC9BFCE99A4A
:10049600F90FD8E0E4C9FAE4CCFB2275F010EF2F8F
:1004A600FFEE33FEED33FDCC33CCC833C810D7078F
:1004B6009BEC9AE899400AED9BFDEC9AFCE899F8CA
:0E04C6000FD5F0DAE4CDFBE4CCFAE4C8F9225D
:0C04D400ECF0A3EDF0A3EEF0A3EFF0229B
:10000300E518240CF8E60518227809300802780C64
:10001300E475F0011204E002035F2001EB7F2ED2AE
:10002300018018EF540F2490D43440D4FF30050BD3
:10003300EF24BFB41A0050032461FFE519600215D1
:1000430019051CE51C7002051B30080D7809E475C1
:10005300F0011204E0EF0203A5020C197403D208A5
:100063008003E4C208F5188B098A0A890BE4F519A1
:10007300F51BF51CE51960077F2012003E80F5751E
:100083001AFFC202C201C203C204C206C207C209E6
:1000930012000CFF700D3008057F0012004FAF1CDB
:1000A300AE1B22B4255FC2D5C20512000CFF24D0BB
:1000B300B40A00501A75F00A781930D50508B6FF4E
:1000C3000106C6A426F620D5047002D20480D924E2
:1000D300CFB41A00EF5004C2E5D20502024FD20298
:1000E30080C6D20180C0D20380BCD2D580BAD206EA
:1000F30080B47F2012003E2003077401B51900402D
:10010300F1120003FF12003E020077D209D20780EA
:1001130095120003FB120003FA120003F94A4B7015
:100123000679207A037BFF20032EE519602A7E00DF
:100133008E8275830012037860060EEE651A70F0E6
:10014300C2D5EBC0E0EAC0E0E9C0E0EE120296D00F
:10015300E0F9D0E0FAD0E0FB12035FFF60AAEBC046
:10016300E0EAC0E0E9C0E012003ED0E02401F9D0AB
:10017300E03400FAD0E0FBE51A0460DCD51AD9803C
:10018300877BFF7A027992D203809C79108002796F
:1001930008C207C2098008D2D5790A8004790AC245
:1001A300D5E51A047002F51AE4FAFDFEFF12000306
:1001B300FC7B08200213120003FD7B1030010A129E
:1001C3000003FE120003FF7B20EC3382D592D5504F
:1001D30013C3E43001069FFFE49EFEE42002039D67
:1001E300FDE49CFCE4CBF8C202EC700CCFCECDCC8A
:1001F300E824F8F870F38017C3EF33FFEE33FEED16
:1002030033FDEC33FCEB33FB994002FB0FD8E9EBF6
:10021300300205F8D0E0C448B202C0E00AEC4D4E0B
:100223004F78207B0070C2EAB51A0040BCC0E012D0
:100233000298D0F0D0E0200204C4C0E0C4B202C0EF
:10024300F0120027D0F0D5F0EB0200771204F00192
:100253001453018E5800E54C00E14201924F019A7C
:0F02630044019A4900FA4301A0550184460184E1
:100272004501844703405000E92D00ED2E01102B6B
:1002820000F123010E2003292A00A94800000108D9
:100292003F3F3F00790AA2D5200414300609B91065
:1002A200020404B9080104A2D52007025001042067
:1002B20003689203B519005034C0E07F203004195E
:1002C2007F30A20372077206500F1202EFC203C2FE
:1002D20007C206C2097F30800F300603E9C0E01270
:1002E200003E300603D0E0F9D0E0B519CC30061755
:1002F2007F30B9100C12003E7F583005077F78809E
:1003020003B9080312003E3003057F2D02003E7F31
:10031200202009F87F2B2007F322920380CF286E3A
:10032200756C6C2900D2021200033002F8C2027806
:100332001930D50108F60200A92D50434958120080
:10034200032403B405004001E490033B9312002F01
:0D035200743A12002FD20475190402018EB6
:1004E000FAE6FB0808E6F925F0F618E6CA3AF6221D
:1004F000D083D082F8E4937012740193700DA3A39B
:1005000093F8740193F5828883E4737402936860AE
:06051000EFA3A3A380DFAE
:100C1900EFB40A07740D120C24740A309811A899BC
:100C2900B8130CC2983098FDA899C298B811F6303B
:070C390099FDC299F5992213
:00000001FF
