:1004EE00E4F508D20053D9BF3082FD12072AC29517
:1004FE00C29612082E1206BF1207E2D2AF1208429F
:10050E001203F612023A7F121205237F8012015156
:05051E0012079D80FEA4
:0A082E0075EF0675A90443B64022D9
:10072A0043F10C53F1BF43F26053A4F343A5604372
:10073A00800C43A40143A50D53B0FB43E24075E38B
:02074A0040224B
:1006BF0075E84075BB0675D11C75BC1075A70F7515
:1006CF00BA04E4F5A7F5BA74FFF5C4F5C375C6030C
:0406DF0075C50722B4
:0F07E20075B520E4F54EF54BF54AF54DF54C2273
:06086300EF540F424E228B
:07085C00EF540FF4524E228D
:10015100A2AFE433F509C2AFAEA975A91453B6BF76
:1001610075E501E5A930E7FBE54E4FF5B58EA943ED
:10017100B64085B50A75B5207F04120823EF30E239
:100181000CE50A20E207E5B5420A75B520E50A202B
:10019100E204EF30E203754B01E50A20E304EF309E
:1001A100E503754A01E50A30E103754C01E50A30C2
:1001B100E003754D01E50924FF92AFE50A30E4043F
:0401C1007FFFDFFEDF
:0101C5002217
:1000C30085A966E5AE700675AEA575AEF17D607F58
:1000D3000512084C7D837F0612084C7D807F041235
:1000E300084C75A974756401756550E565156570EF
:1000F300021564E565456470F27F05120823EF304D
:10010300E4F77F06120823EF30E6F77DC07F051280
:10011300084C8566A9E5A930E7FB7DC07F0412087A
:100123004C75A974756403756540E56515657002C2
:100133001564E565456470F27DC07F0412084C7553
:0D014300B5208566A9E5A930E7FB751FC052
:01015000228C
:0B082300EF4490F5AC000000AFAD22E8
:08084C00EF4410F5AC8DAD2264
:10061D008F578E568D558C5475AC14E51F54F7F5C8
:10062D00AD0075AC188557AD008556AD008555AD3F
:0B063D00008554AD0075AC14851FADA6
:01064800228F
:10055800E51F4401FD7F0412084C7F04120823EFB5
:1005680020E0F775ACD000000085AD5B000085ADDC
:100578005A000085AD59000085AD58AF5BAE5AAD45
:0305880059AC5813
:01058B00224D
:1005C0008F5F8E5E8D5D8C5C75AC10855FAD008538
:1005D0005EAD00855DAD00855CAD00E51F4402FDAC
:0E05E0007F0412084C7F04120823EF20E1F77D
:0105EE0022EA
:0E07F100EF54FC421FE51F4FFD7F0402084C31
:0A083800EF521FAD1F7F0402084CB1
:0802A7008F248E238D228C218F
:1002AF00A2AFE433F525C2AF851F277FFB120838B5
:1002BF001205588F2B8E2A8D298C28E52B2524FF8C
:1002CF00E52A3523FEE5293522FDE5283521FC12E7
:1002DF00061D854E26434E0C7F8012015185264EFA
:1002EF0085271FE4F54BFF7E40FDFC12061DE5251B
:0402FF0024FF92AF97
:0103030022D7
:0A08420075844075B0017585092228
:10070700C293C2B775860430B7FDC2B7E4F5863029
:10071700B7FDC2B78F8630B7FDC2B78D8630B7FD3C
:03072700D2932248
:1005EF00C293C2B775860230B7FDC2B7E4F5863045
:1005FF00B7FDC2B78F8630B7FDC2B77586FF30B76C
:0D060F00FDC2B77586AA30B7FDAF86D29345
:01061C0022BB
:060003008B108A11891226
:10000900C293C2B78F86EF64066003BF08047E04FB
:100019008002E4FE30B7FDC2B78E86EF6402600845
:10002900EF64066003BF01057514018003E4F5144C
:10003900E5136007751500F5168006751501751627
:100049000030B7FDC2B78D86E5147014AB100512E8
:10005900E512AA117002051114F9120304FE8002B7
:10006900E4FE30B7FDE514B40108C2B7E4F5863003
:10007900B7FDE5164515603FC2B78E86E51615161C
:1000890070021515E5147017AB100512E512AA11C7
:100099007002051114F9120304FE20B7D580FB3054
:1000A900B7FDAB100512E512AA117002051114F97A
:0900B900E58612034A80BBD293D4
:0100C200221B
:020523008F093E
:10052500750A19750B007B007A00790A7513027D2F
:10053500307F04120003120699E509B41208E5504C
:100545004402FF1207FF7D807FA1120707AD090F47
:0305550002070793
:1006E300A281E4336005C2932081FD1207C27B001F
:1006F3007A0079677513037D407F021200031208A5
:0407030054020699FD
:0208690000008D
:1003F600C2807F0F7E0012074CD2802081FD7BFFDA
:100406007A0879697513027D307F04120003E4F5DA
:10041600507B017A00790075131E7DB07F021200B1
:10042600037DA57F0A1207077DF17F0A1207077F62
:020436000022A2
:08085400E5504440FF0207FFDC
:10069900E5504440FF1207FF7B007A00790C75137F
:1006A900027D437F02120003E50C30E30312086B5D
:0506B9003081DD7F002F
:0106BE002219
:0C07FF00AD07ED54BDF5507FA0020707C8
:0C080B00AD07ED54FCF54F7F040207869A
:10078600EF4410F50B8D0C7B007A00790B75130284
:070796007D0B7F040200034C
:1007B100AE07EF4490FD7F0B1207077F0C1205EF88
:0107C1002215
:10023A00E4FD7F041207867D607F051207867D84B0
:10024A007F061207867D807F041207867FC87E009C
:10025A0012076E7F051207B1EF30E4F77F06120727
:10026A00B1EF30E6F77DC07F051207867DC07F04B7
:10027A001207867F027E0012076E7DC07F04120776
:10028A0086E5504440FF1207FF7B007A0079097522
:0C029A0013027D437F02120003754FC069
:0102A6002235
:1004B2008F1A8E198D188C1785171E85181D851990
:1004C2001C851A1BE54F54F7FD7F041207867D1821
:1004D2007F0B1207077B007A00791B7513047D0CD2
:0C04E2007F03120003AD4F7F0402078669
:10043800E54F4401FF12080B7F041207B1EF20E0DB
:10044800F77DD07F0B1207077B007A007930751390
:10045800047D0C7F0112000385302F85312E8532F3
:0C0468002D85332CAF2FAE2EAD2DAC2C0B
:010474002265
:100475008F378E368D358C3485343B85353A8536C8
:10048500398537387D107F0B1207077B007A007995
:10049500387513047D0C7F03120003E54F4402FFFA
:0C04A50012080B7F041207B1EF20E1F7F2
:0104B1002228
:10058C00C3E49FF53DE49EF53C853D3E853C3F85AF
:10059C003D40853C41754204AD3E7F50120707AD8E
:1005AC003F7F51120707AD407F52120707AD417FC5
:0405BC0053020707D8
:10064900C3E49FF544E49EF54385444585434685C7
:1006590044478543487549047B007A0079457513F9
:08066900057D557F040200032A
:1007C2007B017A00790075131E7DB07F040200035D
:1007D2007B017A00791E7513057DD07F020200032A
:10074C00E4FDEF4E601BC2D820D8FDED70077D0193
:10075C0075FC148005E4FD75FC15EF1F70E41E801C
:01076C00E1AB
:01076D002269
:10076E00AB07AA06EB1BAE0270011A4E60097FE8BA
:08077E007E0312074C80ED22FE
:02086B0080FE0D
:10035C00756A41E56AD3943F4003756A3FE49000A7
:10036C0005F0A3F0A3F0A3F0A3F01207C2900024B1
:10037C00740EF0A37401F0E56A4480A3F0A3742119
:10038C00F0E4A3F0A3F0A37410F07B017A007924BD
:10039C007513077D957F04120003E5504401FF029D
:0203AC0007FF49
:060671008B608A618962C2
:10067700E4F563AB60AA61A96285638275830012A2
:10068700031DFDAF631201C60563E563C39408400C
:01069700E280
:01069800223F
:10079D00E4F509E4FDAF091201C60509E509C394A5
:0307AD000840F011
:0107B0002226
:1003AE00246E24720078243604780468207A246639
:1003BE008118003654600070252218662432246C91
:1003CE00107E346C245A81080076180601765A0085
:1003DE0049004218007E0006243C201E2446245A62
:0803EE00247A000E247E245E37
:0201C6008F0A9E
:1001C800EDC394414012EDD3945A500CED25E02430
:1001D8002CF582E43403802EEDC394614012EDD3F4
:1001E800947A500CED25E024ECF582E43402801674
:1001F800EDC39430401DEDD394395017ED25E0241C
:1002080082F582E43403F583E493F50B740193F5E6
:100218000C8005E4F50BF50CE50A25E02482FFE5E2
:100228000BFD120707E50A25E02481FFE50CFD0216
:020238000707B6
:03000000020817DC
:0C081700787FE4F6D8FD75816A0204EEDB
:10030400BB010689828A83E0225002E722BBFE02F7
:09031400E32289828A83E493222A
:10031D00BB010CE58229F582E5833AF583E0225095
:10032D0006E92582F8E622BBFE06E92582F8E222DF
:0D033D00E58229F582E5833AF583E49322F9
:10034A00BB010689828A83F0225002F722BBFE0192
:02035A00F3228C
:00000001FF
