:1004EE00E4F508D20053D9BF3082FD12072DC29514
:1004FE00C2961208311206C21207E5D2AF12084593
:10050E001203F612023A12035C1207A07F091205BB
:08051E00267F8012015180FECE
:0A08310075EF0675A90443B64022D6
:10072D0043F10C53F1BF43F26053A4F343A560436F
:10073D00800C43A40143A50D53B0FB43E24075E388
:02074D00402248
:1006C20075E84075BB0675D11C75BC1075A70F7512
:1006D200BA04E4F5A7F5BA74FFF5C4F5C375C60309
:0406E20075C50722B1
:0F07E50075B520E4F54EF54BF54AF54DF54C2270
:06086600EF540F424E2288
:07085F00EF540FF4524E228A
:10015100A2AFE433F509C2AFAEA975A91453B6BF76
:1001610075E501E5A930E7FBE54E4FF5B58EA943ED
:10017100B64085B50A75B5207F04120826EF30E236
:100181000CE50A20E207E5B5420A75B520E50A202B
:10019100E204EF30E203754B01E50A20E304EF309E
:1001A100E503754A01E50A30E103754C01E50A30C2
:1001B100E003754D01E50924FF92AFE50A30E4043F
:0401C1007FFFDFFEDF
:0101C5002217
:1000C30085A966E5AE700675AEA575AEF17D607F58
:1000D3000512084F7D837F0612084F7D807F04122F
:1000E300084F75A974756401756550E565156570EC
:1000F300021564E565456470F27F05120826EF304A
:10010300E4F77F06120826EF30E6F77DC07F05127D
:10011300084F8566A9E5A930E7FB7DC07F04120877
:100123004F75A974756403756540E56515657002BF
:100133001564E565456470F27DC07F0412084F7550
:0D014300B5208566A9E5A930E7FB751FC052
:01015000228C
:0B082600EF4490F5AC000000AFAD22E5
:08084F00EF4410F5AC8DAD2261
:100620008F578E568D558C5475AC14E51F54F7F5C5
:10063000AD0075AC188557AD008556AD008555AD3C
:0B064000008554AD0075AC14851FADA3
:01064B00228C
:10055B00E51F4401FD7F0412084F7F04120826EFAC
:10056B0020E0F775ACD000000085AD5B000085ADD9
:10057B005A000085AD59000085AD58AF5BAE5AAD42
:03058B0059AC5810
:01058E00224A
:1005C3008F5F8E5E8D5D8C5C75AC10855FAD008535
:1005D3005EAD00855DAD00855CAD00E51F4402FDA9
:0E05E3007F0412084F7F04120826EF20E1F774
:0105F10022E7
:0E07F400EF54FC421FE51F4FFD7F0402084F2B
:0A083B00EF521FAD1F7F0402084FAB
:0802A7008F248E238D228C218F
:1002AF00A2AFE433F525C2AF851F277FFB12083BB2
:1002BF0012055B8F2B8E2A8D298C28E52B2524FF89
:1002CF00E52A3523FEE5293522FDE5283521FC12E7
:1002DF000620854E26434E0C7F8012015185264EF7
:1002EF0085271FE4F54BFF7E40FDFC120620E52518
:0402FF0024FF92AF97
:0103030022D7
:0A08450075844075B0017585092225
:10070A00C293C2B775860430B7FDC2B7E4F5863026
:10071A00B7FDC2B78F8630B7FDC2B78D8630B7FD39
:03072A00D2932245
:1005F200C293C2B775860230B7FDC2B7E4F5863042
:10060200B7FDC2B78F8630B7FDC2B77586FF30B768
:0D061200FDC2B77586AA30B7FDAF86D29342
:01061F0022B8
:060003008B108A11891226
:10000900C293C2B78F86EF64066003BF08047E04FB
:100019008002E4FE30B7FDC2B78E86EF6402600845
:10002900EF64066003BF01057514018003E4F5144C
:10003900E5136007751500F5168006751501751627
:100049000030B7FDC2B78D86E5147014AB100512E8
:10005900E512AA117002051114F9120304FE8002B7
:10006900E4FE30B7FDE514B40108C2B7E4F5863003
:10007900B7FDE5164515603FC2B78E86E51615161C
:1000890070021515E5147017AB100512E512AA11C7
:100099007002051114F9120304FE20B7D580FB3054
:1000A900B7FDAB100512E512AA117002051114F97A
:0900B900E58612034A80BBD293D4
:0100C200221B
:020526008F093B
:10052800750A19750B007B007A00790A7513027D2C
:10053800307F0412000312069CE509B41208E55046
:100548004402FF1208027D807FA112070AAD090F3D
:0305580002070A8D
:1006E600A281E4336005C2932081FD1207C57B0019
:1006F6007A0079677513037D407F021200031208A2
:040706005702069CF4
:02086C0000008A
:1003F600C2807F0F7E0012074FD2802081FD7BFFD7
:100406007A08796C7513027D307F04120003E4F5D7
:10041600507B017A00790075131E7DB07F021200B1
:10042600037DA57F0A12070A7DF17F0A12070A7F5C
:020436000022A2
:08085700E5504440FF020802D5
:10069C00E5504440FF1208027B007A00790C751378
:1006AC00027D437F02120003E50C30E30312086E57
:0506BC003081DD7F002C
:0106C1002216
:0C080200AD07ED54BDF5507FA002070AC1
:0C080E00AD07ED54FCF54F7F0402078994
:10078900EF4410F50B8D0C7B007A00790B75130281
:070799007D0B7F0402000349
:1007B400AE07EF4490FD7F0B12070A7F0C1205F27F
:0107C4002212
:10023A00E4FD7F041207897D607F051207897D84AA
:10024A007F061207897D807F041207897FC87E0096
:10025A001207717F051207B4EF30E4F77F06120721
:10026A00B4EF30E6F77DC07F051207897DC07F04B1
:10027A001207897F027E001207717DC07F04120770
:10028A0089E5504440FF1208027B007A007909751B
:0C029A0013027D437F02120003754FC069
:0102A6002235
:1004B2008F1A8E198D188C1785171E85181D851990
:1004C2001C851A1BE54F54F7FD7F041207897D181E
:1004D2007F0B12070A7B007A00791B7513047D0CCF
:0C04E2007F03120003AD4F7F0402078966
:10043800E54F4401FF12080E7F041207B4EF20E0D5
:10044800F77DD07F0B12070A7B007A00793075138D
:10045800047D0C7F0112000385302F85312E8532F3
:0C0468002D85332CAF2FAE2EAD2DAC2C0B
:010474002265
:100475008F378E368D358C3485343B85353A8536C8
:10048500398537387D107F0B12070A7B007A007992
:10049500387513047D0C7F03120003E54F4402FFFA
:0C04A50012080E7F041207B4EF20E1F7EC
:0104B1002228
:10058F00C3E49FF53DE49EF53C853D3E853C3F85AC
:10059F003D40853C41754204AD3E7F5012070AAD88
:1005AF003F7F5112070AAD407F5212070AAD417FBC
:0405BF005302070AD2
:10064C00C3E49FF544E49EF54385444585434685C4
:10065C0044478543487549047B007A0079457513F6
:08066C00057D557F0402000327
:1007C5007B017A00790075131E7DB07F040200035A
:1007D5007B017A00791E7513057DD07F0202000327
:10074F00E4FDEF4E601BC2D820D8FDED70077D0190
:10075F0075FC148005E4FD75FC15EF1F70E41E8019
:01076F00E1A8
:010770002266
:10077100AB07AA06EB1BAE0270011A4E60097FE8B7
:080781007E0312074F80ED22F8
:02086E0080FE0A
:10035C00750941E509D3943F400375093FE49000CA
:10036C0005F0A3F0A3F0A3F0A3F01207C5900024AE
:10037C00740EF0A37401F0E5094480A3F0A374217A
:10038C00F0E4A3F0A3F0A37410F07B017A007924BD
:10039C007513077D957F04120003E5504401FF029D
:0203AC00080245
:060674008B608A618962BF
:10067A00E4F563AB60AA61A962856382758300129F
:10068A00031DFDAF631201C60563E563C394084009
:01069A00E27D
:01069B00223C
:1007A000E4F509E4FDAF091201C60509E509C394A2
:0307B0000840F00E
:0107B3002223
:1003AE00246E24720078243604780468207A246639
:1003BE008118003654600070252218662432246C91
:1003CE00107E346C245A81080076180601765A0085
:1003DE0049004218007E0006243C201E2446245A62
:0803EE00247A000E247E245E37
:0201C6008F0A9E
:1001C800EDC394414012EDD3945A500CED25E02430
:1001D8002CF582E43403802EEDC394614012EDD3F4
:1001E800947A500CED25E024ECF582E43402801674
:1001F800EDC39430401DEDD394395017ED25E0241C
:1002080082F582E43403F583E493F50B740193F5E6
:100218000C8005E4F50BF50CE50A25E02482FFE5E2
:100228000BFD12070AE50A25E02481FFE50CFD0213
:02023800070AB3
:0300000002081AD9
:0C081A00787FE4F6D8FD7581690204EED9
:10030400BB010689828A83E0225002E722BBFE02F7
:09031400E32289828A83E493222A
:10031D00BB010CE58229F582E5833AF583E0225095
:10032D0006E92582F8E622BBFE06E92582F8E222DF
:0D033D00E58229F582E5833AF583E49322F9
:10034A00BB010689828A83F0225002F722BBFE0192
:02035A00F3228C
:00000001FF
