:0908660030303030303030300009
:1003AE00E4F508D20053D9BF3082FD120744C2953E
:1003BE00C2961208481206D91207FCD2AF12085C78
:1003CE0012044512023A12035C1207B77BFF7A0839
:1003DE00796612068B7D7E7F801207217D087F9ABB
:0F03EE001207217F0912053D7F8012015180FE09
:0A08480075EF0675A90443B64022BF
:1007440043F10C53F1BF43F26053A4F343A5604358
:10075400800C43A40143A50D53B0FB43E24075E371
:02076400402231
:1006D90075E84075BB0675D11C75BC1075A70F75FB
:1006E900BA04E4F5A7F5BA74FFF5C4F5C375C603F2
:0406F90075C507229A
:0F07FC0075B520E4F54EF54BF54AF54DF54C2259
:06088600EF540F424E2268
:07087F00EF540FF4524E226A
:10015100A2AFE433F509C2AFAEA975A91453B6BF76
:1001610075E501E5A930E7FBE54E4FF5B58EA943ED
:10017100B64085B50A75B5207F0412083DEF30E21F
:100181000CE50A20E207E5B5420A75B520E50A202B
:10019100E204EF30E203754B01E50A20E304EF309E
:1001A100E503754A01E50A30E103754C01E50A30C2
:1001B100E003754D01E50924FF92AFE50A30E4043F
:0401C1007FFFDFFEDF
:0101C5002217
:1000C30085A962E5AE700675AEA575AEF17D607F5C
:1000D3000512086F7D837F0612086F7D807F0412EF
:1000E300086F75A974756001756150E561156170DC
:1000F300021560E561456070F27F0512083DEF303F
:10010300E4F77F0612083DEF30E6F77DC07F051266
:10011300086F8562A9E5A930E7FB7DC07F0412085B
:100123006F75A974756003756140E56115617002AF
:100133001560E561456070F27DC07F0412086F753C
:0D014300B5208562A9E5A930E7FB751FC056
:01015000228C
:0B083D00EF4490F5AC000000AFAD22CE
:08086F00EF4410F5AC8DAD2241
:100637008F578E568D558C5475AC14E51F54F7F5AE
:10064700AD0075AC188557AD008556AD008555AD25
:0B065700008554AD0075AC14851FAD8C
:010662002275
:10057200E51F4401FD7F0412086F7F0412083DEF5E
:1005820020E0F775ACD000000085AD5B000085ADC2
:100592005A000085AD59000085AD58AF5BAE5AAD2B
:0305A20059AC58F9
:0105A5002233
:1005DA008F5F8E5E8D5D8C5C75AC10855FAD00851E
:1005EA005EAD00855DAD00855CAD00E51F4402FD92
:0E05FA007F0412086F7F0412083DEF20E1F726
:0106080022CF
:0E080B00EF54FC421FE51F4FFD7F0402086FF3
:0A085200EF521FAD1F7F0402086F74
:0802A7008F248E238D228C218F
:1002AF00A2AFE433F525C2AF851F277FFB1208529B
:1002BF001205728F2B8E2A8D298C28E52B2524FF72
:1002CF00E52A3523FEE5293522FDE5283521FC12E7
:1002DF000637854E26434E0C7F8012015185264EE0
:1002EF0085271FE4F54BFF7E40FDFC120637E52501
:0402FF0024FF92AF97
:0103030022D7
:0A085C0075844075B001758509220E
:10072100C293C2B775860430B7FDC2B7E4F586300F
:10073100B7FDC2B78F8630B7FDC2B78D8630B7FD22
:03074100D293222E
:10060900C293C2B775860230B7FDC2B7E4F586302A
:10061900B7FDC2B78F8630B7FDC2B77586FF30B751
:0D062900FDC2B77586AA30B7FDAF86D2932B
:0106360022A1
:060003008B108A11891226
:10000900C293C2B78F86EF64066003BF08047E04FB
:100019008002E4FE30B7FDC2B78E86EF6402600845
:10002900EF64066003BF01057514018003E4F5144C
:10003900E5136007751500F5168006751501751627
:100049000030B7FDC2B78D86E5147014AB100512E8
:10005900E512AA117002051114F9120304FE8002B7
:10006900E4FE30B7FDE514B40108C2B7E4F5863003
:10007900B7FDE5164515603FC2B78E86E51615161C
:1000890070021515E5147017AB100512E512AA11C7
:100099007002051114F9120304FE20B7D580FB3054
:1000A900B7FDAB100512E512AA117002051114F97A
:0900B900E58612034A80BBD293D4
:0100C200221B
:02053D008F0924
:10053F00750A19750B007B007A00790A7513027D15
:10054F00307F041200031206B3E509B41208E55018
:10055F004402FF1208197D807FA1120721AD090FF8
:03056F000207215F
:1006FD00A281E4336005C2932081FD1207DC7B00EB
:10070D007A0079637513037D407F0212000312088E
:04071D00770206B3A6
:02088C0000006A
:10044500C2807F0F7E00120766D2802081FD7BFF70
:100455007A08798C7513027D307F04120003E4F568
:10046500507B017A00790075131E7DB07F02120062
:10047500037DA57F0A1207217DF17F0A1207217FDF
:02048500002253
:08087700E5504440FF0208199E
:1006B300E5504440FF1208197B007A00790C75134A
:1006C300027D437F02120003E50C30E30312088E20
:0506D3003081DD7F0015
:0106D80022FF
:0C081900AD07ED54BDF5507FA002072193
:0C082500AD07ED54FCF54F7F040207A066
:1007A000EF4410F50B8D0C7B007A00790B7513026A
:0707B0007D0B7F0402000332
:1007CB00AE07EF4490FD7F0B1207217F0C12060939
:0107DB0022FB
:10023A00E4FD7F041207A07D607F051207A07D847C
:10024A007F061207A07D807F041207A07FC87E0068
:10025A001207887F051207CBEF30E4F77F061207F3
:10026A00CBEF30E6F77DC07F051207A07DC07F0483
:10027A001207A07F027E001207887DC07F04120742
:10028A00A0E5504440FF1208197B007A00790975ED
:0C029A0013027D437F02120003754FC069
:0102A6002235
:100501008F1A8E198D188C1785171E85181D851940
:100511001C851A1BE54F54F7FD7F041207A07D18B7
:100521007F0B1207217B007A00791B7513047D0C68
:0C0531007F03120003AD4F7F040207A0FF
:10048700E54F4401FF1208257F041207CBEF20E058
:10049700F77DD07F0B1207217B007A007930751327
:1004A700047D0C7F0112000385302F85312E8532A4
:0C04B7002D85332CAF2FAE2EAD2DAC2CBC
:0104C3002216
:1004C4008F378E368D358C3485343B85353A853679
:1004D400398537387D107F0B1207217B007A00792C
:1004E400387513047D0C7F03120003E54F4402FFAB
:0C04F4001208257F041207CBEF20E1F76F
:0105000022D8
:1005A600C3E49FF53DE49EF53C853D3E853C3F8595
:1005B6003D40853C41754204AD3E7F50120721AD5A
:1005C6003F7F51120721AD407F52120721AD417F77
:0405D60053020721A4
:10066300C3E49FF544E49EF54385444585434685AD
:1006730044478543487549047B007A0079457513DF
:08068300057D557F0402000310
:1007DC007B017A00790075131E7DB07F0402000343
:1007EC007B017A00791E7513057DD07F0202000310
:10076600E4FDEF4E601BC2D820D8FDED70077D0179
:1007760075FC148005E4FD75FC15EF1F70E41E8002
:01078600E191
:01078700224F
:10078800AB07AA06EB1BAE0270011A4E60097FE8A0
:080798007E0312076680ED22CA
:02088E0080FEEA
:10035C00750941E509D3943F400375093FE49000CA
:10036C0005F0A3F0A3F0A3F0A3F01207DC90002497
:10037C00740EF0A37401F0E5094480A3F0A374217A
:10038C00F0E4A3F0A3F0A37410F07B017A007924BD
:10039C007513077D957F04120003E5504401FF029D
:0203AC0008192E
:06068B008B098A0A890BAD
:10069100E4F50CAB09AA0AA90B850C82758300123B
:1006A100031DFDAF0C1201C6050CE50CC3940840F7
:0106B100E266
:0106B2002225
:1007B700E4F509E4FDAF091201C60509E509C3948B
:0307C7000840F0F7
:0107CA00220C
:1003FD00246E24720078243604780468207A2466EA
:10040D008118003654600070252218662432246C41
:10041D00107E346C245A81080076180601765A0035
:10042D0049004218007E0006243C201E2446245A12
:08043D00247A000E247E245EE7
:0201C6008F0D9B
:1001C800EDC394414012EDD3945A500CED25E02430
:1001D8007BF582E43403802EEDC394614012EDD3A5
:1001E800947A500CED25E0243BF582E43403801624
:1001F800EDC39430401DEDD394395017ED25E0241C
:10020800D1F582E43403F583E493F50E740193F594
:100218000F8005E4F50EF50FE50D25E02482FFE5D6
:100228000EFD120721E50D25E02481FFE50FFD02F3
:0202380007219C
:03000000020831C2
:0C083100787FE4F6D8FD7581650203AE07
:10030400BB010689828A83E0225002E722BBFE02F7
:09031400E32289828A83E493222A
:10031D00BB010CE58229F582E5833AF583E0225095
:10032D0006E92582F8E622BBFE06E92582F8E222DF
:0D033D00E58229F582E5833AF583E49322F9
:10034A00BB010689828A83F0225002F722BBFE0192
:02035A00F3228C
:00000001FF
