:09097B00303030303030303000F3
:1004DA00E4F521D20453D9BF3082FD12086DC295CA
:1004EA00C29612096712080312091BD2AF12088CAE
:1004FA001205711203661204881208D67BFF7A0964
:10050A00797B1207B57D7E7F801207347D087F9A3A
:0F051A001207347F091206697F8012027D80FE6E
:0A09670075EF0675A90443B640229F
:10086D0043F10C53F1BF43F26053A4F343A560432E
:0F087D00800C43A40175D4FF43E10475E34022CE
:1008030075E84075BB0675D11C75BC1075A70F75CF
:10081300BA04E4F5A7F5BA74FFF5C4F5C375C603C6
:0408230075C507226E
:0F091B0075B520E4F51FF51CF51BF51EF51D2223
:06099B00EF540F421F2281
:07099400EF540FF4521F2283
:10027D00A2AFE433F522C2AFAEA975A91453B6BF30
:10028D0075E501E5A930E7FBE51F4FF5B58EA943EF
:10029D00B64085B52375B5207F0412095CEF30E2B9
:1002AD000CE52320E207E5B5422375B520E52320B3
:1002BD00E204EF30E203751C01E52320E304EF3087
:1002CD00E503751B01E52330E103751D01E52330C1
:1002DD00E003751E01E52224FF92AFE52330E4040F
:0402ED007FFFDFFEB2
:0102F10022EA
:1001760085A973E5AE700675AEA575AEF17D607F97
:10018600051209847D837F061209847D807F04120F
:10019600098475A974757101757250E572157270CE
:1001A600021571E572457170F27F0512095CEF3038
:1001B600E4F77F0612095CEF30E6F77DC07F051293
:1001C60009848573A9E5A930E7FB7DC07F04120980
:1001D6008475A974757103757240E57215727002A3
:1001E6001571E572457170F27DC07F041209847540
:0D01F600B5208573A9E5A930E7FB7577C03A
:0102030022D8
:0B095C00EF4490F5AC000000AFAD22AE
:08098400EF4410F5AC8DAD222B
:100761008F688E678D668C6575AC14E57754F7F5E7
:10077100AD0075AC188568AD008567AD008566ADC7
:0B078100008565AD0075AC148577ADF8
:01078C00224A
:10000300E5774401FD7F041209847F0412095CEF44
:1000130020E0F775ACD000000085AD6C000085AD25
:100023006B000085AD6A000085AD69AF6CAE6BAD4A
:030033006AAC694B
:0100360022A7
:1006D7008F708E6F8D6E8C6D75AC108570AD0085CB
:1006E7006FAD00856EAD00856DAD00E5774402FD09
:0E06F7007F041209847F0412095CEF20E1F7F2
:0107050022D1
:0E092A00EF54FC4277E5774FFD7F040209840D
:0A097100EF5277AD777F040209848E
:0803D3008F328E318D308C2F2A
:1003DB00A2AFE433F533C2AF8577357FFB120971DA
:1003EB001200038F398E388D378C36E5392532FF65
:1003FB00E5383531FEE5373530FDE536352FFC1266
:10040B000761851F34431F0C7F8012027D85341FCB
:10041B00853577E4F51CFF7E40FDFC120761E53363
:04042B0024FF92AF69
:01042F0022AA
:10088C0075C154438E045389F0438902758CF085ED
:0B089C008C8AD28C43C18043E601220D
:100734002000FDD200C202C201751074750C03E4DE
:10074400F50D8F0E8D0FF51175120075130FF5173A
:0D075400751804F519F51AD2C52000FD2214
:100706002000FDD200C202D201751074750C02E4FD
:10071600F50D8F0EF514751500751624F517751859
:0D07260003F519751A01D2C52000FDAF249E
:0107330022A3
:100204002000FDD200C202EF64026008EF640660C1
:1002140003BF011B752D01D201751700751803E585
:100224002C751900F51A7025751901F51A801EE44C
:10023400F52DC201E52C2403F518E433F517E4F594
:1002440019F51AE52C7006751701751803EF640685
:100254006003BF0805752E048003E4F52E75107441
:100264008F0C852E0D8D0E8B148A1589168B118A91
:08027400128913D2C52000FD20
:01027C00225F
:020669008F22DE
:10066B007523197524007B007A007923752C027D84
:10067B00307F041202041207DDE522B41208E56193
:10068B004402FF1209387D807FA1120734C293AD5B
:07069B00220F120734D29375
:0106A2002235
:10082700A281E433C29360032081FD1208FB7B00A1
:100837007A007974752C037D407F02120204120935
:040847008C0207DD3B
:03003B0002003E82
:10003E00C0E0C083C082C0D075D000C000C001C077
:07004E0002C003C006C00759
:10005500C20330C20302014AE5C054F02480700394
:100065000200F124C0602424E060030201468510EB
:10007500C253C2FEA202E43342C2C2C5750A00756C
:100085000B0075080075090002014C30C15830029B
:100095000302014CC3E5099403E508940050137469
:1000A5000C2509F8E6F5C20509E509702E050802D3
:1000B500014CC3E5099518E50895175020AB11AA21
:1000C50012A913120430F5C274012513F513E43592
:1000D50012F5120509E50970020508806A30015B11
:1000E500D202D2C58061D2C4D2C5805BE51A24FF95
:1000F500FFE51934FFFEC3E50B9FE50A9E501FABD4
:10010500140516E516AA157002051514F9E5C212AF
:100115000476050BE50B7002050AD2C18029AB14E4
:100125000516E516AA157002051514F9E5C212049F
:1001350076050BE50B7002050AC2C1D2C4C2008068
:1001450006D2038002D20330031053C17F43C1801E
:0C015500C2C5C2C4C2C1C200C203C2C005
:10016100D007D006D003D002D001D000D0D0D082A9
:05017100D083D0E03254
:020037000000C7
:10057100C2807F0F7E0012084BD2802081FD7BFF5D
:100581007A007937752C027D307F04120204E4F57C
:10059100617B017A007900752C1E7DB07F02120209
:1005A100047DA57F0A1207347DF17F0A1207347F8B
:0205B100002226
:08098C00E5614440FF02093857
:1007DD00E5614440FF1209387B007A007925752CBC
:1007ED00027D437F02120204E52530E30312003936
:0507FD003081DD7F00EA
:0108020022D3
:0C093800AD07ED54BDF5617FA00207344F
:0C094400AD07ED54FCF5607F040208BF15
:1008BF00EF4410F5248D257B007A007924752C02E6
:0708CF007D0B7F040202040F
:1008EA00AE07EF4490FD7F0B1207347F0C12070608
:0108FA0022DB
:10036600E4FD7F041208BF7D607F051208BF7D840F
:100376007F061208BF7D807F041208BF7FC87E00FB
:100386001208A77F051208EAEF30E4F77F06120885
:10039600EAEF30E6F77DC07F051208BF7DC07F0417
:1003A6001208BF7F027E001208A77DC07F041208D4
:1003B600BFE5614440FF1209387B007A0079227557
:0C03C6002C027D437F021202047560C00F
:0103D2002208
:10062D008F3D8E3C8D3B8C3A853A41853B40853CD8
:10063D003F853D3EE56054F7FD7F041208BF7D18F0
:10064D007F0B1207347B007A00793E752C047D0CEC
:0C065D007F03120204AD607F040208BF9E
:1005B300E5604401FF1209447F041208EAEF20E0DA
:1005C300F77DD07F0B1207347B007A007946752CB8
:1005D300047D0C7F01120204854645854744854806
:0C05E30043854942AF45AE44AD43AC42F5
:0105EF0022E9
:1005F0008F4D8E4C8D4B8C4A854A51854B50854C86
:100600004F854D4E7D107F0B1207347B007A0079A9
:100610004E752C047D0C7F03120204E5604402FF3A
:0C0620001209447F041208EAEF20E1F701
:01062C0022AB
:1006A300C3E49FF553E49EF5528553548552558513
:1006B3005356855257755804AD547F50120734ADC5
:1006C300557F51120734AD567F52120734AD577F11
:0406D3005302073493
:10078D00C3E49FF55AE49EF559855A5B85595C85FE
:10079D005A5D85595E755F047B007A00795B752C17
:0807AD00057D557F04020204E2
:1008FB007B017A007900752C1E7DB07F0402020407
:10090B007B017A00791E752C057DD07F02020204D3
:10084B00E4FDEF4E601BC2D820D8FDED70077D0193
:10085B0075FC148005E4FD75FC15EF1F70E41E801C
:01086B00E1AB
:01086C002269
:1008A700AB07AA06EB1BAE0270011A4E60097FE880
:0808B7007E0312084B80ED22C4
:0200390080FE47
:10048800752241E522D3943F400375223FE4900052
:1004980005F0A3F0A3F0A3F0A3F01208FB9000244A
:1004A800740EF0A37401F0E5224480A3F0A3742134
:1004B800F0E4A3F0A3F0A37410F07B017A00792490
:1004C800752C077D957F04120204E5614401FF0243
:0204D8000938E1
:0607B5008B228A23892437
:1007BB00E4F525AB22AA23A9248525827583001293
:1007CB000449FDAF251202F20525E525C394084027
:0107DB00E23B
:0107DC0022FA
:1008D600E4F522E4FDAF221202F20522E522C394DA
:0308E6000840F0D7
:0108E90022EC
:10052900246E24720078243604780468207A2466BC
:100539008118003654600070252218662432246C14
:10054900107E346C245A81080076180601765A0008
:1005590049004218007E0006243C201E2446245AE5
:08056900247A000E247E245EBA
:0202F2008F2655
:1002F400EDC394414012EDD3945A500CED25E02403
:10030400A7F582E43404802EEDC394614012EDD34A
:10031400947A500CED25E02467F582E434048016C9
:10032400EDC39430401DEDD394395017ED25E024EE
:10033400FDF582E43404F583E493F527740193F521
:10034400288005E4F527F528E52625E02482FFE545
:1003540027FD120734E52625E02481FFE528FD0268
:0203640007345C
:03000000020950A2
:0C095000787FE4F6D8FD7581770204DAA8
:10043000BB010689828A83E0225002E722BBFE02CA
:09044000E32289828A83E49322FD
:10044900BB010CE58229F582E5833AF583E0225068
:1004590006E92582F8E622BBFE06E92582F8E222B2
:0D046900E58229F582E5833AF583E49322CC
:10047600BB010689828A83F0225002F722BBFE0165
:02048600F3225F
:00000001FF
