:10000300E4F521D20453D9BF3082FD120852C295C0
:10001300C29612094C1207E8120900D2AF120871F6
:100023001205221203667F1212061A7F8012027DC6
:050033001208BB80FE75
:0A094C0075EF0675A90443B64022BA
:1008520043F10C53F1BF43F26053A4F343A5604349
:0F086200800C43A40175D4FF43E10475E34022E9
:1007E80075E84075BB0675D11C75BC1075A70F75EB
:1007F800BA04E4F5A7F5BA74FFF5C4F5C375C603E2
:0408080075C5072289
:0F09000075B520E4F51FF51CF51BF51EF51D223E
:06097700EF540F421F22A5
:07097000EF540FF4521F22A7
:10027D00A2AFE433F522C2AFAEA975A91453B6BF30
:10028D0075E501E5A930E7FBE51F4FF5B58EA943EF
:10029D00B64085B52375B5207F04120941EF30E2D4
:1002AD000CE52320E207E5B5422375B520E52320B3
:1002BD00E204EF30E203751C01E52320E304EF3087
:1002CD00E503751B01E52330E103751D01E52330C1
:1002DD00E003751E01E52224FF92AFE52330E4040F
:0402ED007FFFDFFEB2
:0102F10022EA
:1001760085A977E5AE700675AEA575AEF17D607F93
:10018600051209607D837F061209607D807F041257
:10019600096075A974757501757650E576157670E2
:1001A600021575E576457570F27F05120941EF3047
:1001B600E4F77F06120941EF30E6F77DC07F0512AE
:1001C60009608577A9E5A930E7FB7DC07F041209A0
:1001D6006075A974757503757640E57615767002B7
:1001E6001575E576457570F27DC07F041209607558
:0D01F600B5208577A9E5A930E7FB757BC032
:0102030022D8
:0B094100EF4490F5AC000000AFAD22C9
:08096000EF4410F5AC8DAD224F
:100746008F688E678D668C6575AC14E57B54F7F5FE
:10075600AD0075AC188568AD008567AD008566ADE2
:0B076600008565AD0075AC14857BAD0F
:010771002265
:10065400E57B4401FD7F041209607F04120941EF28
:1006640020E0F775ACD000000085AD6C000085ADCE
:100674006B000085AD6A000085AD69AF6CAE6BADF3
:030684006AAC69F4
:010687002250
:1006BC008F708E6F8D6E8C6D75AC108570AD0085E6
:1006CC006FAD00856EAD00856DAD00E57B4402FD20
:0E06DC007F041209607F04120941EF20E1F74C
:0106EA0022ED
:0E090F00EF54FC427BE57B4FFD7F0402096044
:0A095600EF527BAD7B7F04020960C5
:0803D3008F328E318D308C2F2A
:1003DB00A2AFE433F533C2AF857B357FFB120956F1
:1003EB001206548F398E388D378C36E5392532FF0E
:1003FB00E5383531FEE5373530FDE536352FFC1266
:10040B000746851F34431F0C7F8012027D85341FE6
:10041B0085357BE4F51CFF7E40FDFC120746E5337A
:04042B0024FF92AF69
:01042F0022AA
:1008710075C154438E045389F0438902758CF08508
:0B0881008C8AD28C43C18043E6012228
:100719002000FDD200C202C201751074750C03E4F9
:10072900F50D8F0E8D0FF51175120075130FF51755
:0D073900751804F519F51AD2C52000FD222F
:1006EB002000FDD200C202D201751074750C02E419
:1006FB00F50D8F0EF514751500751624F517751875
:0D070B0003F519751A01D2C52000FDAF24B9
:0107180022BE
:100204002000FDD200C202EF64026008EF640660C1
:1002140003BF011B752D01D201751700751803E585
:100224002C751900F51A7025751901F51A801EE44C
:10023400F52DC201E52C2403F518E433F517E4F594
:1002440019F51AE52C7006751701751803EF640685
:100254006003BF0805752E048003E4F52E75107441
:100264008F0C852E0D8D0E8B148A1589168B118A91
:08027400128913D2C52000FD20
:01027C00225F
:02061A008F222D
:10061C007523197524007B007A007923752C027DD3
:10062C00307F041202041207C2E522B41208E561FD
:10063C004402FF12091D7D807FA1120719C293ADE0
:07064C00220F120719D293DF
:010653002284
:10080C00A281E433C29360032081FD1208E07B00D7
:10081C007A007978752C037D407F0212020412094C
:04082C00680207C295
:03003B0002003E82
:10003E00C0E0C083C082C0D075D000C000C001C077
:07004E0002C003C006C00759
:10005500C20330C20302014AE5C054F02480700394
:100065000200F124C0602424E060030201468510EB
:10007500C253C2FEA202E43342C2C2C5750A00756C
:100085000B0075080075090002014C30C15830029B
:100095000302014CC3E5099403E508940050137469
:1000A5000C2509F8E6F5C20509E509702E050802D3
:1000B500014CC3E5099518E50895175020AB11AA21
:1000C50012A913120430F5C274012513F513E43592
:1000D50012F5120509E50970020508806A30015B11
:1000E500D202D2C58061D2C4D2C5805BE51A24FF95
:1000F500FFE51934FFFEC3E50B9FE50A9E501FABD4
:10010500140516E516AA157002051514F9E5C212AF
:100115000476050BE50B7002050AD2C18029AB14E4
:100125000516E516AA157002051514F9E5C212049F
:1001350076050BE50B7002050AC2C1D2C4C2008068
:1001450006D2038002D20330031053C17F43C1801E
:0C015500C2C5C2C4C2C1C200C203C2C005
:10016100D007D006D003D002D001D000D0D0D082A9
:05017100D083D0E03254
:020038000000C6
:10052200C2807F0F7E00120830D2802081FD7BFFC7
:100532007A007938752C027D307F04120204E4F5CA
:10054200617B017A007900752C1E7DB07F02120258
:10055200047DA57F0A1207197DF17F0A1207197F10
:02056200002275
:08096800E5614440FF02091D96
:1007C200E5614440FF12091D7B007A007925752CF2
:1007D200027D437F02120204E52530E30312097D04
:0507E2003081DD7F0005
:0107E70022EF
:0C091D00AD07ED54BDF5617FA002071985
:0C092900AD07ED54FCF5607F040208A44B
:1008A400EF4410F5248D257B007A007924752C0201
:0708B4007D0B7F040202042A
:1008CF00AE07EF4490FD7F0B1207197F0C1206EB5A
:0108DF0022F6
:10036600E4FD7F041208A47D607F051208A47D8445
:100376007F061208A47D807F041208A47FC87E0031
:1003860012088C7F051208CFEF30E4F77F061208BB
:10039600CFEF30E6F77DC07F051208A47DC07F044D
:1003A6001208A47F027E0012088C7DC07F0412080A
:1003B600A4E5614440FF12091D7B007A007922758D
:0C03C6002C027D437F021202047560C00F
:0103D2002208
:1005DE008F3D8E3C8D3B8C3A853A41853B40853C28
:1005EE003F853D3EE56054F7FD7F041208A47D185B
:1005FE007F0B1207197B007A00793E752C047D0C57
:0C060E007F03120204AD607F040208A408
:10056400E5604401FF1209297F041208CFEF20E05F
:10057400F77DD07F0B1207197B007A007946752C22
:10058400047D0C7F01120204854645854744854855
:0C05940043854942AF45AE44AD43AC4244
:0105A0002238
:1005A1008F4D8E4C8D4B8C4A854A51854B50854CD5
:1005B1004F854D4E7D107F0B1207197B007A007914
:1005C1004E752C047D0C7F03120204E5604402FF8A
:0C05D1001209297F041208CFEF20E1F787
:0105DD0022FB
:10068800C3E49FF553E49EF552855354855255852E
:100698005356855257755804AD547F50120719ADFB
:1006A800557F51120719AD567F52120719AD577F62
:0406B80053020719C9
:10077200C3E49FF55AE49EF559855A5B85595C8519
:100782005A5D85595E755F047B007A00795B752C32
:08079200057D557F04020204FD
:1008E0007B017A007900752C1E7DB07F0402020422
:1008F0007B017A00791E752C057DD07F02020204EF
:10083000E4FDEF4E601BC2D820D8FDED70077D01AE
:1008400075FC148005E4FD75FC15EF1F70E41E8037
:01085000E1C6
:010851002284
:10088C00AB07AA06EB1BAE0270011A4E60097FE89B
:08089C007E0312083080ED22FA
:02097D0080FEFA
:10048800757C41E57CD3943F4003757C3FE4900044
:1004980005F0A3F0A3F0A3F0A3F01208E090002465
:1004A800740EF0A37401F0E57C4480A3F0A37421DA
:1004B800F0E4A3F0A3F0A37410F07B017A00792490
:1004C800752C077D957F04120204E5614401FF0243
:0204D800091DFC
:06079A008B718A72897365
:1007A000E4F574AB71AA72A9738574827583001223
:1007B0000449FDAF741202F20574E574C394084055
:0107C000E256
:0107C1002215
:1008BB00E4F522E4FDAF221202F20522E522C394F5
:0308CB000840F0F2
:0108CE002207
:1004DA00246E24720078243604780468207A24660C
:1004EA008118003654600070252218662432246C64
:1004FA00107E346C245A81080076180601765A0058
:10050A0049004218007E0006243C201E2446245A34
:08051A00247A000E247E245E09
:0202F2008F2358
:1002F400EDC394414012EDD3945A500CED25E02403
:1003040058F582E43404802EEDC394614012EDD399
:10031400947A500CED25E02418F582E43404801618
:10032400EDC39430401DEDD394395017ED25E024EE
:10033400AEF582E43404F583E493F524740193F573
:10034400258005E4F524F525E52325E02482FFE551
:1003540024FD120719E52325E02481FFE525FD028C
:02036400071977
:03000000020935BD
:0C093500787FE4F6D8FD75817C02000399
:10043000BB010689828A83E0225002E722BBFE02CA
:09044000E32289828A83E49322FD
:10044900BB010CE58229F582E5833AF583E0225068
:1004590006E92582F8E622BBFE06E92582F8E222B2
:0D046900E58229F582E5833AF583E49322CC
:10047600BB010689828A83F0225002F722BBFE0165
:02048600F3225F
:00000001FF
