:1000030053D9BF75B64043B280E4F5A975D43F75A3
:10001300D50875A48075A54D75A70F75A48075A522
:100023004DF5A775E10275E24075E340D293C296A0
:10003300F5A2F5A175F805F58575844075B001C283
:10004300FFC2B7F5A3E5A130E3FB30FFFDAFA3EF9C
:1000530030E723E4F5A3C2FFC293C2B78F8630B75C
:10006300FD30FFFDAFA3E4F5A3C2FFC2B78F863017
:10007300B7FDD2938023C293C2B78F8630B7FDC238
:10008300B7E4F58630B7FDAF86D2938FA3C2FF30B6
:10009300FFFDAFA3E4F5A3C2FFE5A130E3A780F919
:030000000200A358
:0C00A300787FE4F6D8FD758107020003A9
:00000001FF
